:020000040800F2
:1000000018040020CD030008A5010008A70100087E
:10001000AB010008AF010008B301000800000000B8
:10002000000000000000000000000000B701000810
:10003000B901000800000000BB010008E50300084A
:10004000E7030008E7030008E7030008E7030008E8
:10005000E7030008E7030008E7030008E7030008D8
:10006000E7030008E7030008E7030008E7030008C8
:10007000E7030008E7030008E7030008E7030008B8
:10008000E7030008E7030008E7030008E7030008A8
:10009000E7030008E7030008E7030008E703000898
:1000A000E7030008E7030008E7030008E703000888
:1000B000E7030008E7030008E7030008E703000878
:1000C000E7030008E7030008E7030008E703000868
:1000D000E7030008E7030008E7030008E703000858
:1000E000E7030008E7030008E7030008E703000848
:1000F000E7030008E7030008E7030008E703000838
:10010000E7030008E7030008E7030008E703000827
:10011000E7030008E7030008E7030008E703000817
:10012000E7030008E7030008E7030008E703000807
:10013000E7030008E7030008E7030008E7030008F7
:10014000E7030008E7030008E7030008E7030008E7
:10015000E7030008E7030008E7030008E7030008D7
:10016000E7030008E7030008E7030008E7030008C7
:10017000E7030008E7030008E7030008E7030008B7
:10018000E7030008E7030008DFF80CD000F030F9BF
:10019000004800479D0100081804002000F07CF88A
:1001A00000BFFEE7704700BFFEE700BFFEE700BFED
:1001B000FEE700BFFEE77047704770470CB50020B0
:1001C000019000907648006840F4803074490860DF
:1001D00000BF7348006800F4003000900198401C94
:1001E0000190009818B90198B0F5A06FF1D16C4852
:1001F000006800F4003010B10120009001E0002000
:1002000000900098012846D165484030006840F0D1
:1002100080506349403108606248006840F4804083
:10022000604908605E48083000685D490831086030
:100230000846006840F4004008600846006840F442
:10024000A05008605848091F0860081F006840F067
:100250008070091F086000BF5148006800F00070FE
:100260000028F9D040F20560504908604C48083039
:10027000006820F003004A49083108600846006819
:1002800040F00200086000BF45480830006800F0F8
:100290000C000828F8D10CBD10B54548006840F4A2
:1002A0007000434908603E48006840F001003C4946
:1002B000086000203A4908310860394800683D4923
:1002C0000840374908603C48091D0860081F00685D
:1002D00020F48020091F0860002031490C3108609B
:1002E000FFF76CFF4FF0006031498039086010BDA6
:1002F00070B500200022022300240221284D083579
:100300002D6805F00C0020B1042806D0082834D14F
:1003100007E02A4D2A4E356033E02A4D284E3560DD
:100320002FE01F4D2D1D2D68C5F380541C4D2D1D34
:100330002D6805F03F0154B1224DB5FBF1F5184E83
:10034000361D3668C6F3881605FB06F209E01B4D1C
:10035000B5FBF1F5124E361D3668C6F3881605FB5F
:1003600006F20F4D2D1D2D68C5F301456D1C6B0068
:10037000B2FBF3F5124E356003E0104D104E3560C0
:1003800000BF00BF064D08352D68C5F303150E4E9E
:10039000705D0B4D2D68C540094E356070BD000085
:1003A000003802400070004019544007003C0240F1
:1003B00088ED00E0FFFFF6FE103000240024F4007A
:1003C0000000002040787D0104000020064880479E
:1003D00006480047FEE7FEE7FEE7FEE7FEE7FEE72A
:1003E000FEE7FEE7FEE7FEE7990200088901000844
:1003F000064C074D06E0E06840F0010394E8070072
:1004000098471034AC42F6D3FFF7C2FE340400081C
:100410005404000802E008C8121F08C1002AFAD1DB
:1004200070477047002001E001C1121F002AFBD174
:100430007047000054040008000000201400000071
:1004400014040008680400081400002004040000DC
:1004500024040008007A030A0000000000000000E5
:0804600001020304060708096C
:040000050800018965
:00000001FF
