:020000040800F2
:10000000082D0020992C0008F9020008FB020008C6
:10001000FF020008030300080703000800000000B7
:100020000000000000000000000000000B030008BA
:100030000D03000800000000872F0008B32E000801
:10004000B32C0008B32C0008B32C0008B32C000814
:10005000B32C0008B32C0008B32C0008B32C000804
:10006000B32C0008B32C0008B32C0008B32C0008F4
:10007000B32C0008B32C0008B32C0008B32C0008E4
:10008000B32C0008B32C0008B32C0008B32C0008D4
:1000900051040008B32C0008B32C0008B32C00084E
:1000A000B32C0008B32C0008B32C0008B32C0008B4
:1000B000B32C000885050008B32C0008B32C0008F9
:1000C000B32C0008B32C0008B32C0008B32C000894
:1000D000B32C00086D060008B32C0008B32C0008F0
:1000E000B32C0008B32C0008B32C0008B32C000874
:1000F000B32C0008B32C0008B32C0008B32C000864
:10010000B32C0008B32C0008B32C0008B32C000853
:10011000B32C0008B32C0008B32C0008B32C000843
:10012000B32C0008B32C0008B32C0008B32C000833
:10013000B32C0008B32C0008B32C0008B32C000823
:10014000B32C0008B32C0008B32C0008B32C000813
:10015000B32C0008B32C0008B32C0008B32C000803
:10016000B32C0008B32C0008B32C0008B32C0008F3
:10017000B32C0008B32C0008B32C0008B32C0008E3
:10018000B32C0008B32C0008DFF80CD005F0FAF906
:10019000004800479D020008082D002007E04A485B
:1001A000006804F0BDFC4FF47A7005F015F9F6E72D
:1001B0004BE01021454800F009FC4FF4FA6005F0CF
:1001C0000BF92021414800F001FC4FF4FA6005F0E2
:1001D00003F940213D4800F0F9FB4FF4FA6005F0C7
:1001E000FBF88021394800F0F1FB4FF4FA6005F08C
:1001F000F3F83748002102683348006804F0E1FB57
:1002000034480078401C3349087010212F4800F012
:10021000DBFB4FF4FA6005F0DFF820212B4800F0FB
:10022000D3FB4FF4FA6005F0D7F84021274800F0DF
:10023000CBFB4FF4FA6005F0CFF88021234800F0A3
:10024000C3FB4FF4FA6005F0C7F8B2E700BF002423
:1002500002F045FE02F076FE0446002004F02BFB7F
:10026000194908601C480168002003F0A1FB1B49E4
:1002700008603C231A4A00211A4804F067FD0A234B
:10028000194A0021194804F061FD204602F05EFE83
:1002900000BF4FF47A7005F09FF8FAE710B502F04E
:1002A00061FC4FF4A06000F035FA00F021F902F093
:1002B000D9FF05230E4A00210E4804F047FD03F044
:1002C000F8F8002010BD00000000002000000240EF
:1002D00008000020100000200C0000200400002076
:1002E0008C0C0020B10100088C0800209D01000842
:1002F0008C0400204D020008704700BFFEE700BFDD
:10030000FEE700BFFEE700BFFEE770477047000052
:100310002DE9F0418AB004460D4616461F46DDF829
:1003200040800121084600F027FF0121480600F027
:1003300056FF4FF4C050089002208DF82400002092
:100340008DF8260003208DF8250001208DF8270068
:1003500008A9644800F0BCFA09220B21614800F0AA
:1003600042FB09220C215F4800F03DFB00208DF884
:100370001A008DF81B008DF81C0001208DF81D005F
:1003800000208DF81E008DF81F008DF816808DF866
:1003900017408DF818608DF81950ADF8147005A944
:1003A000514801F092FE00208DF80E0001208DF8DA
:1003B0000F008DF810000820ADF8040041F2040091
:1003C000ADF806000820ADF8080041F60400ADF8CD
:1003D0000A000020ADF80C0001208DF8110001A8E2
:1003E00001F0FDFE01208DF80E008DF80F008DF854
:1003F00010000820ADF8040042F20400ADF8060039
:100400001020ADF8080040F60400ADF80A00002006
:10041000ADF80C0001208DF8110001A801F0DFFEFD
:1004200001220221304802F0D9F914208DF8000091
:1004300001208DF8010000208DF8020001208DF8C8
:100440000300684600F06BF900200AB0BDE8F081B7
:1004500000B585B06A460021234802F0A4F801984F
:10046000B0F5813F09D02149084458B1B0F5807FEB
:100470000DD0B0F57E4F14D10EE08021194800F068
:10048000A5FA0EE01021174800F09EFA09E040217D
:10049000144800F09BFA00BF4021124800F094FA83
:1004A00000BF00BF05B000BD00B585B04FF482307D
:1004B000019004208DF8080000208DF80900032029
:1004C0008DF80A0057208DF80B0048218DF80C108C
:1004D00055218DF80D106946034801F06FFF05B0F6
:1004E00000BD0000000002400064004000FDFEFF6F
:1004F0001CB50121084600F03FFEF02000900120CD
:100500008DF8040000208DF8060003208DF805000A
:1005100001208DF807006946034800F0D9F9F02161
:10052000014800F051FA1CBD000002407FB50546AD
:100530000C460121022000F052FE0295ADF8044065
:100540000020ADF80600ADF80C0001A9164800F037
:10055000FEFF01221146144801F09AFC1D208DF87F
:10056000000001208DF8010003208DF80200012019
:100570008DF80300684600F0D2F801210A4801F026
:100580006FF87FBD10B50121074801F098FC0128E4
:1005900005D11021054800F022FAFFF785FF01215F
:1005A000014801F09DFC10BD000400400000024025
:1005B00000BF704770B504460D4600BF402151484A
:1005C00000F0F7FB0028F9D0E1B24E4800F041FB03
:1005D000204670BD10B5044600BF8021494800F098
:1005E000E8FB0028F9D0474800F037FB10BD10B5F4
:1005F00086B004460121084600F0BEFD012110200E
:1006000000F0FEFD072209213F4800F0ECF9072227
:100610000A213D4800F0E7F94FF4C0600490022041
:100620008DF8140000208DF8160002208DF81500BA
:1006300001208DF8170004A9334800F049F900940F
:100640000020ADF80400ADF80600ADF80800ADF8E4
:100650000C000C20ADF80A0069462A4800F046FA62
:100660000121284800F0CAFA06B010BD10B540F2CA
:100670002551244800F0B3FB18B1224800F0EDFAF0
:10068000C4B22248008800F4004058BB1F480088CC
:1006900000F4804060B10A2C03D000201B49088080
:1006A00020E01A48008840F400401849088019E00A
:1006B0000D2C06D11548008840F48040134908806D
:1006C00010E012480088C0F30D0011490C540F4887
:1006D0000088401C0D49088008460088C72801DDB5
:1006E0000020088010BD10B504462146054800F0E2
:1006F000B0FA00BF8021034800F05BFB0028F9D06E
:1007000010BD000000100140000002401800002051
:10071000900C002032490143324A1160704770B595
:10072000002100230F22C4781CB32E4C246804F44B
:10073000E064C4F5E064C4F30721C1F10404E3B24A
:100740000A4144789C40E1B28478144021430C076C
:10075000210E254C05786155047804F01F0501240D
:10076000AC4005786D11AD0005F1E025C5F80041FC
:1007700009E0047804F01F050124AC401B4D067805
:10078000761145F8264070BD194A0A400243154BC0
:100790001B1F1A60704739B1124A121D12680243BA
:1007A000104B1B1D1A6006E00E4A121D1268824390
:1007B0000C4B1B1D1A607047042808D14FF0E02134
:1007C000096941F004014FF0E022116107E04FF0A8
:1007D000E021096921F004014FF0E0221161704726
:1007E0000000FA050CED00E000E400E080E100E02C
:1007F00080FFFF1F10B504468C48844208D10121B8
:10080000084600F00EFD0021012000F00AFD5EE028
:100810008748844208D10121022000F002FD002116
:10082000022000F0FEFC52E08248844208D10121FF
:10083000042000F0F6FC0021042000F0F2FC46E069
:100840007D48844208D10121082000F0EAFC002103
:10085000082000F0E6FC3AE07848844208D1012103
:10086000102000F0DEFC0021102000F0DAFC2EE069
:100870007348844208D10121202000F0D2FC0021DD
:10088000202000F0CEFC22E06E48844208D10121F5
:10089000402000F0C6FC0021402000F0C2FC16E021
:1008A0006948844208D10121802000F0BAFC00216F
:1008B000802000F0B6FC0AE06448844207D10121A0
:1008C000801500F0AEFC0021A01500F0AAFC10BDC0
:1008D000F0B50A4600210023002400BF3DE00125B9
:1008E00005FA01F3156805EA03049C4234D1056852
:1008F0004F000326BE40B543056015794E00B54054
:100900000668354305601579012D02D01579022D51
:1009100016D185684F000326BE40B54385605579E2
:100920004E00B540866835438560456801268E4097
:10093000B5434560456896798E40B6B2354345600B
:10094000C5684F000326BE40B543C560D5794E004B
:10095000B540C6683543C560491C1029BFD3F0BDFA
:100960004FF6FF7101600021017141718171C17108
:10097000704708B54FF480320092009A0A43009203
:10098000009AC261C161009AC261C2690092C269E3
:10099000009208BD0246002013690B400BB10120F4
:1009A00000E0002070470146086980B270470246A7
:1009B000002053690B400BB1012000E0002070477C
:1009C0000146486980B27047018370474183704790
:1009D0000AB1018300E04183704741617047426979
:1009E0004A4042617047F0B5002300244D07ED0EE8
:1009F00002FA05F3CE1000F1200555F826504E07F7
:100A0000F70E0F26BE40B543CF1000F1200646F882
:100A10002750CE1000F1200555F8265045EA030472
:100A2000CE1000F1200545F82640F0BD0000024040
:100A30000004024000080240000C02400010024086
:100A40000014024000180240001C02400020024036
:100A500010B50446F748844208D10121102000F067
:100A600037FC0021102000F033FC3EE0F2488442C5
:100A700009D10121480400F01AFC00214FF4003094
:100A800000F015FC31E0ED48844209D101218804D1
:100A900000F00DFC00214FF4802000F008FC24E061
:100AA000E748844209D10121C80400F000FC00217C
:100AB0004FF4002000F0FBFB17E0E248844209D12C
:100AC0000121080500F0F3FB00214FF4801000F035
:100AD000EEFB0AE0DC48844207D10121202000F02F
:100AE000F7FB0021202000F0F3FB10BD2DE9FF47AC
:100AF00005460E460024A14600BFA046B08900B1BD
:100B000000BF2C8A24F44054F08804432C82AC8922
:100B100041F20C608443B0883189084371890843ED
:100B20000443AC81AC8A24F44074B0890443AC82A1
:100B3000684600F08CFABF48854202D0C248854220
:100B400002D1DDF80C9001E0DDF80890A88900F4EE
:100B5000004040B109EBC90000EB091031684900C1
:100B6000B0FBF1F707E009EBC90000EB09103168B1
:100B70008900B0FBF1F76420B7FBF0F00401200915
:100B8000642101FB1078A88900F4004040B13220B4
:100B900000EBC800B0FBF1F000F00700044308E0F0
:100BA000322000EB08106421B0FBF1F000F00F00E0
:100BB00004432C81BDE8FF874FF4165101600021EA
:100BC0008180C18001810C21418100218181704798
:100BD00010B502460020108A20F470600B884C8803
:100BE00023438C882343CC8823431843108210BDB1
:100BF0000021018041808180C180704721B18289BC
:100C000042F40052828104E082894DF6FF731A405B
:100C100082817047028B02F47F420283028B0A4377
:100C20000283704721B1828942F40042828103E04D
:100C30008289C2F30E028281704721B1828A42F416
:100C40000062828204E0828A4FF2FF731A4082823D
:100C50007047C1F308028280704701468888C0F35C
:100C600008007047028A4FF6F0731A400282028A27
:100C70000A430282704721B1828942F002028281D6
:100C800004E082894FF6FD731A40828170478289A1
:100C90004FF2FF731A40828182890A438281704732
:100CA000028A4FF6DF731A400282028A0A430282E6
:100CB000704721B1028A42F48042028204E0028A33
:100CC0004BF6FF731A4002827047818941F001019F
:100CD0008181704721B1828A42F00802828204E059
:100CE000828A4FF6F7731A4082827047028BD2B223
:100CF0000283028B42EA01220283704721B1828A79
:100D000042F02002828204E0828A4FF6DF731A40AA
:100D10008282704721B1828A42F01002828204E00E
:100D2000828A4FF6EF731A4082827047828A4FF6AA
:100D3000FB731A408282828A0A438282704721B101
:100D4000828A42F00202828204E0828A4FF6FD73B8
:100D50001A40828270471AB1838A0B43838202E071
:100D6000838A8B4383827047F0B5034600240026B4
:100D70000025002040F66A17B94200D100BF18468E
:100D8000C1F3421401F01F06012707FA06F5012CF2
:100D900001D10C3004E0022C01D1103000E01430FD
:100DA0001AB107682F43076002E00768AF43076086
:100DB000F0BD02460020B1F5007F00D100BF1388CE
:100DC0000B400BB1012000E00020704701F40072DD
:100DD000B2F5007F00D100BFCA430280704770B5F2
:100DE0000246002400230025002040F66A16B14286
:100DF00000D100BFC1F3421501F01F03012606FA1E
:100E000003F3012D02D19689334006E0022D02D171
:100E1000168A334001E0968A33400C12012606FA06
:100E200004F41688344013B10CB1012000E0002016
:100E300070BD000000100140004400400048004028
:100E4000004C0040005000400014014010B500224A
:100E5000002340F66A14A14200D100BF0A12012407
:100E60009440A3B2DC43048010BD0000FA4800683F
:100E700040F00100F84908600020F7490831086097
:100E8000F5480068F5490840F3490860F448091D31
:100E90000860081F006820F48020091F08600020F7
:100EA000ED490C31086070470021EB4A921C11702B
:100EB00011460870704710B501460022002300203B
:100EC0004A11012A02D1E44C236808E0022A03D126
:100ED000E14C7034236802E0DF4C7434236801F085
:100EE0001F02012494401C400CB1012000E00020AE
:100EF00010BD38B5002000900024002500BF31202F
:100F0000FFF7D9FF05460098401C00900098B0F507
:100F1000A06F01D0002DF2D03120FFF7CCFF08B137
:100F2000012400E00024204638BD01460020CA4AC2
:100F3000106820F0F80040EAC10010607047C9490D
:100F4000086070470021C44A703211701170012886
:100F500002D004280AD104E00121BF4A7032117086
:100F600005E00521BC4A7032117000E000BF00BFEF
:100F70007047BD490860704770B5049C41EA82150E
:100F80000126C6EB530645EA0645054345EA0465D6
:100F9000B14E361D356070BDB2490866704782019A
:100FA00042EA0172AC4B84331A607047AD498866DF
:100FB0007047AC49C864704702460020A64B08330E
:100FC000186820F0EC6042EA01031843A24B083392
:100FD00018607047024600209F4B0833186820F0C5
:100FE000784042EA010318439B4B0833186070476E
:100FF00001460020984A0832106820F00300084398
:101000001060704794480830006800F00C0070478A
:1010100001460020904A0832106820F0F000084392
:1010200010607047014600208B4A0832106820F497
:10103000E05008431060704701460020864A08329D
:10104000106820F4604040EAC10010607047F0B5BD
:101050000021002200240225002602237E4F0837AB
:101060003F6807F00C0121B1042905D0082937D1C8
:1010700005E07E4F076036E07D4F076033E0764F36
:101080003F1D3F68C7F38056734F3F1D3F6807F011
:101090003F036EB1764FB7FBF3F7DFF8BCC10CF13D
:1010A000040CDCF800C0CCF3881C07FB0CF40CE04B
:1010B0006E4FB7FBF3F7DFF8A0C10CF1040CDCF8BE
:1010C00000C0CCF3881C07FB0CF4634F3F1D3F6846
:1010D000C7F301477F1C7D00B4FBF5F7076002E012
:1010E000624F076000BF00BF5B4F08373F6807F0E3
:1010F000F00109095F4F7A5C0768D7404760564F97
:1011000008373F6807F4E051890A5A4F7A5C47680C
:10111000D7408760504F08373F6807F46041490B5C
:10112000544F7A5C4768D740C760F0BD002100F497
:101130004072B2F5407F0AD1474A0832116821F463
:10114000F8114D4A02401143434A08321160424AA5
:1011500070321268C0F30B031A433F4B70331A60AE
:10116000704741494439086070473F494039086039
:10117000704742490860704739B1374A30321268C7
:101180000243354B30331A6006E0334A303212687E
:101190008243314B30331A60704739B12E4A3432B2
:1011A000126802432C4B34331A6006E02A4A343268
:1011B00012688243284B34331A60704739B1264A8B
:1011C000383212680243244B38331A6006E0224A50
:1011D000383212688243204B38331A60704739B175
:1011E0001D4A4032126802431B4B40331A6006E02E
:1011F000194A403212688243174B40331A607047D5
:1012000039B1154A443212680243134B44331A6011
:1012100006E0114A4432126882430F4B44331A608D
:10122000704739B10C4A1032126802430A4B10332E
:101230001A6006E0084A103212688243064B1033E7
:101240001A607047E1B1044A143212680243024B3B
:1012500014331A6019E0000000380240FFFFF6FE68
:101260001030002400004742800E47420024F40062
:1012700040787D011B000020FFFCFF0F5C0147420E
:101280005B4A126882435A4B1A60704739B1584A18
:10129000121D12680243564B1B1D1A6006E0544A89
:1012A000121D12688243524B1B1D1A60704739B1E0
:1012B0004F4A0C32126802434D4B0C331A6006E061
:1012C0004B4A0C3212688243494B0C331A60704708
:1012D00039B1474A103212680243454B10331A6045
:1012E00006E0434A103212688243414B10331A60C1
:1012F000704739B13E4A3C32126802433C4B3C33A2
:101300001A6006E03A4A3C3212688243384B3C335A
:101310001A60704739B1364A403212680243344B82
:1013200040331A6006E0324A403212688243304B42
:1013300040331A60704739B12D4A44321268024373
:101340002B4B44331A6006E0294A44321268824328
:10135000274B44331A60704739B1254A4C32126822
:101360000243234B4C331A6006E0214A4C32126888
:1013700082431F4B4C331A60704739B11C4A5032BC
:10138000126802431A4B50331A6006E0184A503272
:1013900012688243164B50331A60704739B1144AB1
:1013A000D21F12780243124BDB1F1A7006E0104A5C
:1013B000D21F127882430E4BDB1F1A7070470C4805
:1013C0006030006840F08070094960310860704703
:1013D00001460020064A083A12680A400AB1012074
:1013E00000E0002070470249891F08707047000024
:1013F0001438024010B50446FE48844208D1012149
:101400000846FFF765FF00210120FFF761FF9DE01F
:10141000B4F1804F08D101210846FFF748FF0021B1
:101420000120FFF744FF91E0F348844208D10121F5
:101430000220FFF73CFF00210220FFF738FF85E084
:10144000EE48844208D101210420FFF730FF00213B
:101450000420FFF72CFF79E0E948844208D10121FC
:101460000820FFF724FF00210820FFF720FF6DE090
:10147000E448844208D101211020FFF718FF002121
:101480001020FFF714FF61E0DF48844208D10121FA
:101490002020FFF70CFF00212020FFF708FF55E078
:1014A000DA48844208D101210220FFF711FF002110
:1014B0000220FFF70DFF49E0D548844209D1012100
:1014C0000804FFF705FF00214FF48030FFF700FF0D
:1014D0003CE0D048844209D101214804FFF7F8FEDE
:1014E00000214FF40030FFF7F3FE2FE0CA4884429A
:1014F00009D101218804FFF7EBFE00214FF4802081
:10150000FFF7E6FE22E0C548844208D101214020D1
:10151000FFF7CDFE00214020FFF7C9FE16E0C048CE
:10152000844208D101218020FFF7C1FE00218020E4
:10153000FFF7BDFE0AE0BB48844207D101218015B8
:10154000FFF7B5FE0021A015FFF7B1FE10BD002288
:101550000288A84B98420ED0AC4B98420BD0B0F109
:10156000804F08D0A44B984205D0A44B984202D09B
:10157000A34B984204D14FF68F731A404B881A43FD
:10158000A04B984207D0A04B984204D04FF6FF439F
:101590001A400B891A4302804B68C3620B8803858B
:1015A000944B984202D0994B984201D18B7A038692
:1015B0000123838270474FF0FF3141600021018099
:1015C00001814180817270470185828270470A469D
:1015D000002101884FF68F73194011430180704735
:1015E00041627047C16270470146486A70470146D0
:1015F000088D704721B1028842F00202028004E0A7
:1016000002884FF6FD731A400280704721B10288AC
:1016100042F00402028004E002884FF6FB731A4095
:101620000280704721B1028842F08002028004E00B
:1016300002884FF67F731A400280704702884FF687
:10164000F7731A40028002880A43028070470288BA
:101650004FF6FF431A40028002880A430280704717
:1016600021B1028842F00102028004E002884FF6B4
:10167000FE731A400280704770B5002400220023D8
:10168000058C4FF6FE7635400584028C8388048BEA
:101690004FF68F752C40B51E2C400D882C43751EBF
:1016A0002A408D892A434D882A43524DA84202D0B0
:1016B000564DA84213D14FF6F7752A40CD892A43DB
:1016C0004FF6FB752A408D882A434FF6FF652B4065
:1016D0004FF6FF552B400D8A2B434D8A2B438380B9
:1016E00004838D684563028470BD70B500240022B8
:1016F0000023058C4FF6EF7635400584028C8388F5
:10170000048B48F6FF752C404FF6FF452C400D88A2
:101710004FF6FF7606EA05252C434FF6DF752A4083
:101720008D8906EA05152A434D8806EA05152A43E0
:10173000304DA84202D0354DA8421DD14FF67F75DD
:101740002A40CD894FF6FF7606EA05152A434FF663
:10175000BF752A408D8806EA05152A434FF6FF35E6
:101760002B404FF2FF752B400D8A06EA85052B436F
:101770004D8A06EA85052B43838004838D68856343
:10178000028470BD70B5002400220023058C4FF642
:10179000FF6635400584028C8388848B4FF68F75F5
:1017A0002C404FF6FC752C400D882C434FF6FF550E
:1017B0002A408D894FF6FF7606EA05252A434D8893
:1017C00006EA05252A430B4DA84202D00F4DA84238
:1017D00038D14FF2FF752A40CD894FF6FF7606EAE1
:1017E00005252A434FF6FF352A408D8806EA052550
:1017F0002A4319E0000001400004004000080040B6
:10180000000C0040001000400014004000040140A3
:1018100000400140004401400048014000180040E1
:10182000001C0040002000404EF6FF752B404DF696
:10183000FF752B400D8A06EA05152B434D8A06EAF3
:1018400005152B43838084838D68C563028470BD36
:1018500070B5002200230024058C4EF6FF7635403B
:101860000584038C8488828B48F6FF752A404FF6E6
:10187000FF452A400D884FF6FF7606EA05252A43E4
:101880004DF6FF752B408D8906EA05352B434D88B3
:1018900006EA05352B43FE4DA84202D0FD4DA84275
:1018A00008D14BF6FF752C400D8A4FF6FF7606EAFD
:1018B00085152C43848082838D680564038470BD04
:1018C000002101804180818081608181C18101820C
:1018D0004182704770B50346002000241846183036
:1018E00001258D40ACB21D8CA5431D8409B108298A
:1018F0000AD100EB610005684FF68F763540056030
:101900000568154305600FE00D1FC5F34E0528441B
:10191000056848F6FF763540056005684FF6FF76A6
:1019200006EA02263543056070BD41637047816356
:101930007047C1637047016470470A460021018BFC
:101940004FF68F7319401143018370470A460021F7
:10195000018B48F6FF7319404FF6FF7303EA022329
:101960001943018370470A460021818B4FF68F731C
:1019700019401143818370470A460021818B48F644
:10198000FF7319404FF6FF7303EA02231943818363
:1019900070470A460021018B4FF6F7731940114337
:1019A000018370470A460021018B4FF2FF731940F3
:1019B0004FF6FF7303EA02231943018370470A4677
:1019C0000021818B4FF6F7731940114381837047D3
:1019D0000A460021818B4FF2FF7319404FF6FF73C7
:1019E00003EA02231943818370470A460021018BD1
:1019F0004FF6FB7319401143018370470A460021DB
:101A0000018B4FF6FF3319404FF6FF7303EA0223B1
:101A10001943018370470A460021818B4FF6FB73FF
:101A200019401143818370470A460021818B4FF68C
:101A3000FF3319404FF6FF7303EA022319438183F2
:101A400070470A460021018B4FF67F7319401143FE
:101A5000018370470A460021018BC1F30E014FF646
:101A6000FF7303EA02231943018370470A460021EA
:101A7000818B4FF67F7319401143818370470A466B
:101A80000021818BC1F30E014FF6FF7303EA02239D
:101A90001943818370470A460021018C4FF6FD737C
:101AA00019401143018470470A460021018C4FF60A
:101AB000F77319401143018470470A460021018CD5
:101AC0004FF6DF7319404FF6FF7303EA0213194311
:101AD000018470470A460021018C4FF67F7319403C
:101AE0004FF6FF7303EA02131943018470470A4655
:101AF0000021018C4FF6FF5319404FF6FF7303EAA4
:101B000002231943018470470A460021018C4FF2D9
:101B1000FF7319404FF6FF7303EA02231943018450
:101B200070470A460021018C4DF6FF7319404FF6AD
:101B3000FF7303EA023319430184704730B5002371
:101B400001248C40A3B2048C9C430484048C02FACC
:101B500001F5ADB22C43048430BD30B5002304241C
:101B60008C40A3B2048C9C430484048C02FA01F5DB
:101B7000ADB22C43048430BD828B4FF2FF331A4048
:101B80008283828B4FF6FF7303EA01231A43828319
:101B90007047F0B50C461546002100220026078C40
:101BA0004EF6FF7C07EA0C070784818B028C4FF608
:101BB000FF7707EA043640F6FF4739404FF6FF77D4
:101BC00007EA052739434FF6FF7707EA033739431A
:101BD00045F6FF773A4046F480573A4381830284C2
:101BE000F0BD828B4FF6F3731A408283828B0A43D7
:101BF00082837047F0B50C4615460021002200266E
:101C0000078C4FF6FF6C07EA0C070784818B028C68
:101C10004FF6FF7707EA04264FF60C7739404FF668
:101C2000FF7707EA03172F4339434FF2FF573A4034
:101C300046F480773A4381830284F0BD028B4FF2F1
:101C4000FF331A400283028B4FF6FF7303EA01232E
:101C50001A4302837047F0B50C4615460021002256
:101C60000026078C4FF6EF7C07EA0C070784018BF0
:101C7000028C4FF6FF7707EA041640F6FF4739401B
:101C80004FF6FF7707EA033739434FF6FF7703E054
:101C9000000001400004014007EA052739434FF6E0
:101CA0005F773A4046F010073A4301830284F0BD63
:101CB000028B4FF6F3731A400283028B0A430283AE
:101CC0007047F0B50C46154600210022068C4FF6F1
:101CD000FE773E400684018B028C4FF60C76314035
:101CE0007E1C06EA03162E4331434FF6F57632404A
:101CF00044F00106324301830284F0BD70B505460D
:101D00000C46208850B92389A28861882846FFF7AD
:101D1000D8FFE1882846FFF7CBFF25E0208804287C
:101D20000AD12389A28861882846FFF794FFE188B9
:101D30002846FFF783FF17E0208808280AD1238967
:101D4000A28861882846FFF755FFE1882846FFF7FB
:101D500048FF09E02389A28861882846FFF719FF18
:101D6000E1882846FFF708FF70BD0021018041800F
:101D7000012181800021C180018170472DE9F0415E
:101D800005460C4600260127608808B9022600E0B7
:101D90000026A088012801D1022700E00127208821
:101DA000A0B92389A28861882846FFF78AFFE188C5
:101DB0002846FFF77DFF23893A4631462846FFF73C
:101DC0004AFFE1882846FFF739FF13E02389A288FC
:101DD00061882846FFF73FFFE1882846FFF72EFF7E
:101DE00023893A4631462846FFF76BFFE1882846AB
:101DF000FFF75EFFBDE8F0810146486B7047014682
:101E0000886B70470146C86B70470146086C704785
:101E10000A884B881A438B881A43CB881A430B894C
:101E20001A434B891A438B891A43A0F84420704700
:101E30000021018041808180C180018141818181B7
:101E4000704731B1B0F8442042F40042A0F8442079
:101E500005E0B0F84420C2F30E02A0F84420704719
:101E600021B1828842F00402828004E082884FF629
:101E7000FB731A408280704721B1828842F00102D0
:101E8000828004E082884FF6FE731A408280704799
:101E90001AB183890B43838102E083898B43838159
:101EA00070478182704702460020138A0B400BB1B5
:101EB000012000E000207047CA430282704730B51D
:101EC0000246002000230024158A05EA01039589B3
:101ED00005EA010413B10CB1012000E0002030BD7F
:101EE000CA430282704741EA0203A0F848307047B3
:101EF0001AB183890B43838102E083898B438381F9
:101F0000704721B1828842F00802828004E0828812
:101F10004FF6F7731A408280704701894FF6F872C6
:101F20001140018170470A46002101894FF68F73E5
:101F3000194011430181704730B504460D462946CA
:101F40002046FFF7F0FF208940F00700208130BDD8
:101F50002DE9F04104460D4616461F46602D06D178
:101F60003B46012231462046FFF775FE05E03B4621
:101F7000012231462046FFF7A4FE29462046FFF7FE
:101F8000D2FF208940F007002081BDE8F08130B504
:101F90000C4600210189C9B24FF6FF7505EA0325F9
:101FA000154325432943018130BD2DE9F041054604
:101FB0000E4617469846002443463A463146284680
:101FC000FFF7E5FF2C894FF6F870044044F0070452
:101FD0004FF68F70044044F070042C81BDE8F0810E
:101FE000F0B504460D4616461F463B463246294686
:101FF0002046FFF7CCFF208940F480402081F0BDCF
:1020000082884FF68F731A40828082880A438280CA
:10201000704702894FF6F8731A40028102890A4319
:102020000281704702894FF67F731A40028102894C
:102030000A4302817047F0B50C4615461E46002142
:10204000002200230189028B038C4FF6F877394078
:1020500021434FF6FC473A4040F201173A434FF60E
:10206000DD773B404FF6FF7707EA06172F433B43E8
:10207000018102830384F0BD21B1828842F0800295
:10208000828004E082884FF67F731A408280704716
:10209000A0F850107047000010B50446FE48844276
:1020A00009D101214806FFF702F900214FF0007025
:1020B000FFF7FDF808E001218806FFF7F8F8002196
:1020C0004FF08060FFF7F3F810BD30B502460020F6
:1020D0000023146824F002041460146844F001041E
:1020E000146000E05B1C546804F001041CB94FF656
:1020F000FF74A342F6D1546804F001040CB9002027
:102100006CE08C79012C04D1146844F080041460D4
:1021100003E0146824F080041460CC79012C04D10D
:10212000146844F04004146003E0146824F0400490
:1021300014600C7A012C04D1146844F0200414605B
:1021400003E0146824F0200414604C7A012C04D1BC
:10215000146844F01004146003E0146824F01004C0
:1021600014608C7A012C04D1146844F008041460C3
:1021700003E0146824F008041460CC7A012C04D124
:10218000146844F00404146003E0146824F00404A8
:1021900014608C78A407CD7844EA05640D7944EA8C
:1021A00005444D7944EA05540D886D1E2C43D461D5
:1021B000146824F001041460002300E05B1C5468E0
:1021C00004F001041CB14FF6FF74A342F6D1546829
:1021D00004F001040CB1002000E0012030BD10B576
:1021E0000021837A012202FA03F1AC4A126842F01C
:1021F0000102AA4B1A60A94A1C3212688A43A74BF3
:102200001C331A60027BCAB9A44A0C3212688A4392
:10221000A24B0C331A604288C38842EA03439F4AA8
:102220004032847A42F834300288838842EA034399
:102230009A4A4032847A02EBC4025360027B012A3C
:1022400019D1964A0C3212680A43944B0C331A6027
:102250004288038842EA0343904A4032847A42F833
:102260003430C288838842EA03438C4A4032847AFD
:1022700002EBC4025360C27A3AB9884A121D12684E
:102280008A43864B1B1D1A6006E0844A121D1268A1
:102290000A43824B1B1D1A60028932B97F4A1432ED
:1022A00012688A437D4B14331A600289012A06D1D1
:1022B0007A4A143212680A43784B14331A60427B0C
:1022C000012A06D1754A1C3212680A43734B1C332B
:1022D0001A60724A126822F00102704B1A6010BD37
:1022E00000218171C171017241728172C17281706C
:1022F000C1700321017102214171012101807047E8
:102300006649096841F00101644A11601146096893
:1023100043F60E729143614A11601146096841EA21
:10232000002111601146096821F001011160704718
:1023300021B1026842F48032026003E0026822F4B4
:10234000803202607047E1B1026842F080020260B0
:102350004FF4C272125842F480734FF4C272135099
:102360004FF4CA72125842F480734FF4CA72135079
:102370004FF4D272125842F480734FF4D272135059
:102380001BE0026822F0800202604FF4C272125811
:1023900022F480734FF4C27213504FF4CA72125871
:1023A00022F480734FF4CA7213504FF4D272125851
:1023B00022F480734FF4D2721350704710B5024666
:1023C0000020936803F08063B3F1806F00D110E0C8
:1023D000936803F00063B3F1006F01D1012008E0BE
:1023E000936803F08053B3F1805F01D1022000E0D5
:1023F0000420042879D002F5C07303EB00131B6896
:1024000003F0010402F5C07303EB00131C600B7AA8
:102410007BB94B7A0C8843EA445302F5C07404EB51
:1024200000142468234302F5C07404EB00142360F5
:1024300010E00B7A4C6843EAC4034C7A234302F55C
:10244000C07404EB00142468234302F5C07404EB49
:10245000001423608B7A03F00F038B7202F5C073B4
:1024600003EB00135B6823F00F0402F5C07303EB6A
:1024700000135C6002F5C07303EB00135B688C7A99
:10248000234302F5C07404EB001463608B7B1C06CD
:102490004B7B44EA034403E00064004000660040D4
:1024A0000B7B44EA0323CC7A234302F5C07404EB8C
:1024B0000014A3608B7C1C064B7C44EA03440B7C19
:1024C00044EA0323CC7B234302F5C07404EB0014DD
:1024D000E36002F5C07303EB00131B6843F00104D3
:1024E00002F5C07303EB00131C6010BD10B502466B
:1024F000002321B1012907D002290FD109E09068FA
:10250000F94C00EA04030BE09068F84C00EA04037D
:1025100006E09068F64C00EA040301E0002300BFE7
:1025200000BFF44C181BA34216D007DC83B16FF038
:102530008060184470B1022818D111E0B0F5007F16
:1025400010D0ED4C204448B1B0F5003F0ED10BE067
:1025500002230DE000230BE0002309E0002307E045
:10256000012305E0012303E0012301E0002300BF74
:1025700000BFD8B210BD21B1012907D002290FD167
:1025800009E0826842F0800282600AE0826842F4D8
:102590000042826005E0826842F40002826000E04E
:1025A00000BF00BF704710B500F5D87303EB0113EF
:1025B0001B6803F004031372137A53B900F5D87340
:1025C00003EB01131B6840F2FF7404EA53531360DA
:1025D00009E000F5D87303EB01131B686FF060444A
:1025E00004EAD303536000F5D87303EB01131B68AF
:1025F00003F00203537200F5D87303EB01135B6819
:1026000003F00F03937200F5D87303EB01135B68BB
:102610001B0AD37400F5D87303EB01139B68D372C4
:1026200000F5D87303EB01139B681C0A147300F5C3
:10263000D87303EB01139B681C0C547300F5D8731B
:1026400003EB01139B681B0E937300F5D87303EB28
:102650000113DB68D37300F5D87303EB0113DB6858
:102660001C0A147400F5D87303EB0113DB681C0C0F
:10267000547400F5D87303EB0113DB681B0E9374DD
:1026800021B9C36843F02003C36003E0036943F04A
:102690002003036110BD21B9C26842F02002C2606C
:1026A00003E0026942F02002026170470246002006
:1026B00019B9D36803F0030006E0012903D11369B7
:1026C00003F0030000E00020704710B502460B46FF
:1026D00000204FF6FF71BBB9146824F0020444F0E7
:1026E0000104146000E0491E546804F00304012C46
:1026F00001D00029F7D1546804F00304012C01D063
:10270000002032E0012030E0012B13D1146824F0C6
:102710000304146000E0491E546804F003040CB183
:102720000029F8D1546804F003040CB100201CE027
:1027300001201AE0022B17D1146824F0010444F0A0
:102740000204146000E0491E546804F00304022CE3
:1027500001D00029F7D1546804F00304022C01D001
:10276000002002E0012000E0002010BD0146002012
:102770000A6822F0010242F002020A604A6802F08E
:102780000302022A00D10120704701464FF6FF7272
:1027900000200B6823F002030B6000E0521E4B6820
:1027A00003F00203022B01D1002AF7D14B6803F09A
:1027B0000203022B00D001207047014600208A69E5
:1027C00002F070007047014600208A69100E7047C1
:1027D000014600208A69C2F3074070471AB1436975
:1027E0000B43436102E043698B434361704710B57B
:1027F0000246002001F4700343B19369C1F313044E
:1028000023400BB101202DE000202BE001F080736C
:1028100043B15368C1F3130423400BB1012021E0FD
:1028200000201FE001F0006343B19368C1F313047B
:1028300023400BB1012015E0002013E001F00073EC
:1028400043B1D368C1F3130423400BB1012009E065
:10285000002007E01369C1F3130423400BB10120EA
:1028600000E0002010BD0022244B994202D1002339
:10287000836111E0C1F3130201F000730BB1C26078
:102880000AE001F080630BB1026105E001F0006332
:102890000BB1826000E0426070470246002002EA0D
:1028A00001030BB1012000E00020704770B5044621
:1028B0000D46002660692840002872D0B5F5807F5B
:1028C00069D01DDC082D42D006DC012D2DD0022D53
:1028D00031D0042D7FD134E0102D3ED0202D42D0B8
:1028E000402D78D145E000000300000400030008FB
:1028F00000000310000100080001FFF77000F03035
:10290000B5F5004F61D009DCB5F5007F4AD0B5F5CB
:10291000806F4DD0B5F5006F5DD150E0B5F5803FCB
:102920002DD0B5F5003F56D12FE0A0685549FFF7EF
:10293000B4FF064651E0E0680321FFF7AEFF06460C
:102940004BE0E0680821FFF7A8FF064645E0E06895
:102950001021FFF7A2FF06463FE020690321FFF7A1
:102960009CFF064639E020690821FFF796FF0646DE
:1029700033E020691021FFF790FF06462DE06068E4
:102980000821FFF78AFF064627E060681021FFF75D
:1029900084FF064621E0A0690121FFF77EFF06467D
:1029A0001BE01BE0A0690221FFF777FF064614E059
:1029B000A0690421FFF771FF06460EE00BE0A06955
:1029C0007021FFF76AFF064607E060680421FFF701
:1029D00064FF064601E0002600BF00E00026304606
:1029E00070BDB1F5007F3AD00FDC202928D006DC7D
:1029F00001291CD004291DD0082940D11DE04029FF
:102A000021D0B1F5807F3AD126E0B1F5004F31D029
:102A100006DCB1F5806F25D0B1F5006F2FD124E031
:102A2000B1F5803F12D0B1F5003F28D111E0154A31
:102A3000826025E00822C26022E01022C2601FE00E
:102A4000082202611CE01022026119E008224260A3
:102A500016E01022426013E00422426010E00422DB
:102A600042600DE0042242600AE0002282610422FA
:102A7000426005E0002282610422426000E000BF63
:102A800000BF7047010101000CB5002001900090CB
:102A90007648006840F480307449086000BF73488D
:102AA000006800F4003000900198401C01900098EC
:102AB00018B90198B0F5A06FF1D16C48006800F426
:102AC000003010B10120009001E00020009000983B
:102AD000012846D165484030006840F08050634985
:102AE000403108606248006840F4804060490860F6
:102AF0005E48083000685D49083108600846006893
:102B000040F4004008600846006840F4A0500860A7
:102B10005848091F0860081F006840F08070091FAE
:102B2000086000BF5148006800F000700028F9D02C
:102B300040F20560504908604C480830006820F0B9
:102B400003004A49083108600846006840F0020066
:102B5000086000BF45480830006800F00C000828F5
:102B6000F8D10CBD10B54548006840F470004349E9
:102B700008603E48006840F001003C4908600020C1
:102B80003A4908310860394800683D4908403749EA
:102B900008603C48091D0860081F006820F4802078
:102BA000091F0860002031490C310860FFF76CFFF5
:102BB0004FF0006031498039086010BD70B50020C9
:102BC0000022022300240221284D08352D6805F03B
:102BD0000C0020B1042806D0082834D107E02A4D83
:102BE0002A4E356033E02A4D284E35602FE01F4DC8
:102BF0002D1D2D68C5F380541C4D2D1D2D6805F02D
:102C00003F0154B1224DB5FBF1F5184E361D366823
:102C1000C6F3881605FB06F209E01B4DB5FBF1F57E
:102C2000124E361D3668C6F3881605FB06F20F4DA8
:102C30002D1D2D68C5F301456D1C6B00B2FBF3F52E
:102C4000124E356003E0104D104E356000BF00BFDE
:102C5000064D08352D68C5F303150E4E705D0B4DFE
:102C60002D68C540094E356070BD00000038024037
:102C70000070004019544007003C024088ED00E01D
:102C8000FFFFF6FE103000240024F4002C0000208A
:102C900040787D0130000020064880470648004704
:102CA000FEE7FEE7FEE7FEE7FEE7FEE7FEE7FEE7FC
:102CB000FEE7FEE7652B00088901000870477047B2
:102CC0007047704770477047704770B504461046AC
:102CD0000026051F28462E60051F28462E604FF04F
:102CE0001536051F28462E604FF01436051F28465E
:102CF0002E604FF01336051F28462E604FF0123617
:102D0000051F28462E604FF01136051F28462E60FD
:102D10004FF01036051F28462E604FF00936051F6C
:102D200028462E604FF00836051F28462E604FF0CB
:102D30000736051F28462E604FF00636051F284629
:102D40002E604FF00536051F28462E604FF00436E2
:102D5000051F28462E604FF00336051F28462E60BB
:102D60004FF00236051F28462E607610051F2846B4
:102D70002E600026051F28462E604FF080750560E6
:102D8000051F28462C60B61E051F28462E604FF0F2
:102D90001236051F28462E604FF00336051F2846C1
:102DA0002E604FF00236051F28462E607610051F54
:102DB00028462E60051F284629604FF03136051F32
:102DC00028462E604FF03036051F28462E604FF003
:102DD0002936051F28462E604FF02836051F284645
:102DE0002E604FF02736051F28462E604FF02636FE
:102DF000051F28462E604FF02536051F28462E60F9
:102E00004FF02436051F28462E604FF02336051F4D
:102E100028462E604FF02236051F28462E604FF0C0
:102E20002136051F28462E604FF02036051F284604
:102E30002E604FF01936051F28462E604FF01836C9
:102E4000051F28462E604FF01736051F28462E60B6
:102E50004FF01636051F28462E604FF01136051F1D
:102E600028462E604FF01036051F28462E604FF082
:102E70000936051F28462E604FF00836051F2846E4
:102E80002E604FF00736051F28462E604FF006369D
:102E9000051F28462E604FF00536051F28462E6078
:102EA0004FF00436051F28462E6070BD70477047EE
:102EB000704710B51F480068401C1E49086000F0AC
:102EC00041F804461C480078401C1B490870204605
:102ED00000F03CF800F025FB00F0F7F910BD7FB5DD
:102EE0006846FEF7B4F842F210720198B0FBF2F1B6
:102EF000481EB0F1807F00D31BE0481E4FF0E02257
:102F0000506150170F22002804DB13071C0E0B4BD7
:102F10001C5406E013071D0E094B00F00F04241F7C
:102F20001D5500BF00204FF0E02290610720106186
:102F300000BF7FBD400000205D00002000E400E0F5
:102F400018ED00E0EFF3108072B6704780F3108840
:102F5000704720484FF0FF010170002080F309887E
:102F60001D48012101701D484FF08051016062B67B
:102F7000FEE71A484FF080510160704717484FF044
:102F800080510160704772B6EFF3098040B140385C
:102F900080EC108A203880E8F00F11490968086039
:102FA00000B5104880475DF804EB0F480F490A78D8
:102FB00002700B480E490A680260106890E8F00F32
:102FC000203090EC108A403080F309884EF0040ED7
:102FD00062B6704722ED00E06A00002004ED00E0D8
:102FE00070000020AD2E00085F000020600000206F
:102FF000780000207CB5002514E06946284602F0E0
:10300000E3F8064666B9FD4850F8254044B1012C66
:1030100006D0D4E9020100EB810060640198A0644D
:10302000681CC5B23F2DE8D97CBD00BF00BF03E0DE
:103030004FF4FA6002F0D0F9F14800780028F7D098
:10304000F04800686421B0FBF1F0EE4908600846E2
:10305000006828B90020EC490870FF2002F0F4F85D
:10306000FFF770FF0446E748006864214843E749DA
:1030700008602046FFF76AFF00BFFFF763FF0446C2
:10308000E2480068E24908600020E0490860204604
:10309000FFF75CFFDE480068DA490968B0FBF1F031
:1030A000C0F16400D8490870FFF70EFEFFF7A2FFD9
:1030B0004FF47A7002F090F9DFE700B587B0032093
:1030C00000218022D34BCDE90132CDE903104FF628
:1030D000FE703E23D04A0090AFF2B10001F08DFEA9
:1030E00006AACEA13E2001F0F1FF07B000BD0024EA
:1030F00000BF00BFFFF726FF0446C4480068401C1D
:10310000C24908602046FFF721FFFFF7DCFDF1E729
:1031100000B587B0032000218022C44BCDE90132E5
:10312000CDE903104FF6FF703F23C14A0090AFF284
:10313000410001F062FE06AABEA13F2001F0C6FFD9
:1031400007B000BD04E0002200F8012B4A1E91B236
:103150000029F8D1704770B54FF49671B948FFF760
:10316000F1FF00230FE0581C85B203EB8300B54943
:1031700001EB800405EB850001EB80060020207048
:103180006660581C83B20E2BEDD303EB8300AD4970
:1031900001EB80040020207060600846AA490860A6
:1031A00070BD70B541F25841A848FFF7CBFF4FF40E
:1031B00080719248FFF7C6FF002413E0601CC5B27F
:1031C000C4EBC40000EB4000A04901EB8003C5EB59
:1031D000C50000EB400001EB80065E619CA0D86456
:1031E000601CC4B23D2CE9D3C4EBC40000EB40002A
:1031F000964901EB80030020586195A0D864002017
:103200009449086091489449086070BD0021934A30
:103210001170002004E00021914A1154411CC8B2F1
:103220000828F8D300218F4A11708F4A11708F4AF5
:1032300011608F4A1160704700208E4908608E49E6
:1032400008708E4908708E4908708E4908708E4942
:1032500008606E4908606E4908606A4908606849FC
:103260000870704710B5FFF729FDFFF7E5FFFFF77E
:10327000CDFFFFF796FFFFF76EFF00F0F3FE00F0C3
:10328000E4FF01F0DAFAFFF743FFFFF716FFFFF75D
:1032900017FD10BD7B480078012808D176480078DA
:1032A000FF2804D274480078401C734908707047A6
:1032B00076496A4A1278885C6949095C734A515CAC
:1032C00001EBC001684A1170704710B500246D48C9
:1032D0000078012830D1FFF735FE044666480078B3
:1032E00020B165480078401E634908706248007844
:1032F000F8B962480078E0B9FFF7DAFF3F485A4969
:10330000097850F821005949086057480078554914
:10331000097888420DD055480068806B401C53499D
:103320000968886358480068401C57490860FFF7DF
:1033300025FE2046FFF70AFE10BD10B500245148B7
:103340000078012811D1FFF7FDFD04464A480078B6
:1033500040B94A480078FF2804D248480078401C09
:10336000464908702046FFF7F1FD10BD10B5002456
:10337000FFF7E8FD044640480078F8B93F48007878
:10338000E0B9FFF795FF1D483749097850F821004B
:1033900036490860344800783249097888420DD0AF
:1033A00032480068806B401C3049096888633648A1
:1033B0000068401C34490860FFF7DBFD2046FFF73A
:1033C000C5FD10BD10B500242E48007801286FD12E
:1033D000FFF7B8FD04462848007860B92748007810
:1033E00050B126480078401E2449087008460078ED
:1033F00018B920464CE058E053E04EE0D4120020CB
:103400005C00002054000020500000206C000020D0
:1034100058000020D40E0020D010002075432F4FFC
:10342000532D49492053746174000000D4100020CA
:10343000D012002075432F4F532D49492049646C09
:1034400065000000580D002048000020D413002023
:103450003F0000007C00002074000020610000207C
:10346000620000205F000020600000207800002043
:10347000700000208C0000205D0000205E00002015
:103480006B0000206A00002044000020C6550008A0
:10349000FFF75CFDFFF76AFF0AE02046FFF756FDE5
:1034A00006E02046FFF752FD02E02046FFF74EFD02
:1034B00010BD10B5EE48007890B9FFF7F9FEED4861
:1034C0000078ED490870ED48EA49097850F8210084
:1034D000EB49086008460068EA490860FFF739FDD3
:1034E00010BD10B50024022001F076FFFFF72AFD81
:1034F00004460020E44908602046FFF727FD4FF40A
:103500007A7001F069FFFFF71DFD0446DE48006890
:10351000DE4908600120DE4908702046FFF716FDED
:1035200010BD70B50026FFF7C3FCFFF70BFD064684
:10353000D8480068401CD74908603046FFF706FDB0
:10354000CB480078012853D1D348007820B1012816
:1035500004D0022809D103E001250BE0002509E091
:1035600001250120CC49087004E001250020CA494A
:10357000087000BF00BF05B970BDC848046833E0DB
:10358000FFF7E0FC0646E06A50B3E06A401EE062E6
:10359000E06A28BB94F8300000F0370040B114F81E
:1035A000300F00F0C800207001206070303C02E055
:1035B000002084F8310094F8300000F0080078B959
:1035C0003434A078B64909780843B54908702078A2
:1035D000B449085C6178084314F83419B14A50546E
:1035E00064693046FFF7B2FC94F832003F28C7D137
:1035F00000BFC1E74FF492707047704710B590F864
:10360000342001F10B039B5C90F83540A34301F19A
:103610000B04A35423469B5C23B98B7A90F8364065
:10362000A3438B7210BD2DE9F04F05460F4690461F
:103630009946A87A9C490E5C05F10B00805D11F853
:1036400000B00BEBC60000F0FF0A8C4850F82A408F
:1036500000202034E0602760207C20EA08002074ED
:1036600084F81190207C203C00F0080068B994F8A0
:1036700036008B4909780843894908708948805D7C
:1036800094F8351008438749885529462046FFF7A6
:10369000B5FF5046BDE8F08F10B57A4A1268D06188
:1036A000784A126892F8343000F10B02D25C754B04
:1036B0001B6893F835301A43724B1B6893F83440FB
:1036C00000F10B031A55827A6E4B1B6893F8363063
:1036D0001A4382726B4A126892F83410714A525C33
:1036E000684B1B6893F835309A436E4B5A541A4610
:1036F000525C42B9634A126892F83630684A1278CE
:103700009A43674B1A7010BD014600228A7200204E
:1037100005E0002301F10B021354421CD0B208282B
:10372000F7D3704705E011F8013B00F8013B531E49
:103730009AB2002AF7D170470146002002E0491CE6
:10374000421CD0B20A78002AF9D170472DE9F84F0F
:1037500005460F4690469946DDE90AAB00200090E9
:10376000FFF7F0FB009051480468002C7BD0183420
:1037700054F8040C4D4908600098FFF7E7FB44F843
:10378000187CA576002020766076606144F814BC31
:1037900044F80CAC44F8108C0C9824F8080C24F86D
:1037A000069C0020E077E810207705F00700E0761F
:1037B000217F01208840A077E17E0120884060774A
:1037C00000206060E060A0602062A0626062E06251
:1037D0002063AFF284306063183C002606E00021CD
:1037E00004F1500040F82610701CC6B2002EF6D02E
:1037F0002046FFF75CFBFFF7A5FB00901F4840F851
:1038000025400098FFF7A2FB2046FFF75AFAFFF782
:1038100099FB00902148006860610020A0611F486A
:10382000006810B11D48006884611C48046034348D
:10383000A0781B490978084319490870207819496C
:10384000085C6178084314F83419164A5054184833
:103850000078401C164908700098FFF777FB00209D
:10386000BDE8F88FFFE70098FFF770FB4220F7E70D
:103870006A000020600000205F000020D4120020B9
:1038800078000020700000206C0000205400002010
:103890005C0000208C000020800000207C000020C4
:1038A0006100002062000020C6550008740000205E
:1038B0006B0000202DE9F05F04460F4691461E463E
:1038C0004FF0000B2078052804D001203070002034
:1038D000BDE8F09F09F0800ABAF1000F04D029F08A
:1038E00080094FF0010801E04FF00008002030701F
:1038F000FFF728FB8346B9F1000F2CD0B9F1010F77
:103900003BD0B9F1020F03D0B9F1030F46D111E05A
:10391000208900EA0705BD4206D1B8F1010F05D1A3
:103920002089A843208101E0702030705846FFF7BD
:103930000DFB3AE0208900EA070535B1B8F1010F27
:1039400005D12089A843208101E0702030705846BD
:10395000FFF7FCFA29E0208927EA0005BD4206D1DD
:10396000B8F1010F05D120892843208101E07020A2
:1039700030705846FFF7EAFA17E0208927EA000579
:1039800035B1B8F1010F05D120892843208101E02C
:10399000702030705846FFF7D9FA06E05846FFF716
:1039A000D5FA00256F20307000BF00BF28468FE792
:1039B0002DE9F04106460D460027FA48007820B16F
:1039C000102028700020BDE8F081FFF7BBFA074601
:1039D000F548046884B100684068F3490860052030
:1039E0002070268100206060F0A0E0603846FFF77C
:1039F000ADFA0020287004E03846FFF7A7FA7220DD
:103A000028702046DFE730B501464A6808682AB9C1
:103A1000CC68606028B10025456002E0106000B10C
:103A200042608B6800255D6230BDF0B506460F46EA
:103A3000B4680020283460602780207A00F0DF001E
:103A4000207200206072207A283C88B93434A07833
:103A5000D74909780843D64908702078D549085CC9
:103A60006178084314F83419D24A5054012500E013
:103A700000253046FFF7C7FF2846F0BD2DE9F04787
:103A80000446894615464FF0000AC648007820B122
:103A90000F2028702046BDE8F0872078052803D045
:103AA000012028702046F6E7FFF74CFA824660684E
:103AB00008B1012700E00027B9F1000F03D0B9F1E8
:103AC000010F3CD119E08FB9B8A0E0600020207050
:103AD000B5480068606000202081B348046050460B
:103AE000FFF734FA00202870002605E05046FFF763
:103AF0002DFA49202870264628E0D4F8048005E0F5
:103B000000214046FFF791FFD8F80080B8F1000F80
:103B1000F6D1A6A0E06000202070A3480068606095
:103B200000202081A04804605046FFF70FFA012FC3
:103B300001D1FFF71BFC00202870002606E050464C
:103B4000FFF704FA07202870264600BF00BF304662
:103B5000A1E72DE9F04105460E461446002791489D
:103B6000007820B1112020700020BDE8F081FFF71F
:103B7000E9F907462878052806D03846FFF7E6F920
:103B8000012020700020F0E7E86830603068FFF71F
:103B9000D3FD80463846FFF7D9F900202070404613
:103BA000E3E72DE9F04105460E46144600277D481F
:103BB000007818B112202070BDE8F081FFF7C2F93B
:103BC00007462878052805D03846FFF7BFF90120B9
:103BD0002070F1E7EE603846FFF7B8F9002020705A
:103BE00000BFE9E7F0B51446059E734F3F6897F8AC
:103BF000307047F02007DFF8C0C1DCF800C08CF857
:103C000030700027DFF8B0C1DCF800C08CF83170EC
:103C1000694F3F68FE62684F3F6879620C828B741F
:103C2000654F3F688F6047680F6000274F60C8602E
:103C3000456805B1696041605F4F3F6897F834207F
:103C40005C4FBF5CDFF870C1DCF800C09CF835C089
:103C500027EA0C07DFF85CC10CF802706746BF5C0E
:103C60005FB9554F3F6897F836C0514F3F7827EA04
:103C70000C07DFF83CC18CF80070F0BD2DE9F04F67
:103C800089B005460F4691469A46129E0020029042
:103C90004448007828B102203070002009B0BDE807
:103CA000F08F4648007818B10D2030700020F5E7FD
:103CB0002878052803D0012030700020EEE709F0B5
:103CC000800BBBF1000F04D009F07F094FF0010811
:103CD00001E04FF00008FFF735F90290B9F1000F4D
:103CE0004AD0B9F1010F78D0B9F1020F03D0B9F180
:103CF000030F71D120E0288900EA0704BC420FD1EC
:103D0000B8F1010F02D12889A04328812A48006810
:103D100004850298FFF71AF9002030702046BDE7AD
:103D20004B463A4604A92846CDF800A0FFF75AFFB3
:103D30000298FFF70BF978E0288900EA07047CB1C4
:103D4000B8F1010F02D12889A04328811A480068E0
:103D500004850298FFF7FAF80020307020469DE7AE
:103D60004B463A4604A92846CDF800A0FFF73AFF93
:103D70000298FFF7EBF858E0288927EA0004BC42D4
:103D80001ED1B8F1010F02D12889204328810A48A9
:103D9000006804850298FFF7D9F8002030702046AB
:103DA0007CE71AE05D0000204C0000203F0000008E
:103DB0006100002062000020700000205E000020F2
:103DC0004B463A4604A92846CDF800A0FFF70AFF63
:103DD0000298FFF7BBF828E01FE0288927EA0004D3
:103DE0007CB1B8F1010F02D1288920432881B14864
:103DF000006804850298FFF7A9F80020307020467B
:103E00004CE74B463A4604A92846CDF800A0FFF7F8
:103E1000E9FE0298FFF79AF807E00298FFF796F894
:103E200000246F203070204638E700BFFFF79EFA6D
:103E3000FFF788F802909F48006890F8310020B39F
:103E40009C48006890F83100039000209949096867
:103E500081F8310004A8FFF7D6FD002095490968D4
:103E600081F830000298FFF771F8002403980128C8
:103E700005D0022802D10E20307003E000BF0A20D6
:103E8000307000BF00BF204608E78A480068048DF4
:103E9000B8F1010F1ED1B9F1000F0ED0B9F1010F29
:103EA0000CD0B9F1020F03D0B9F1030F0AD100E031
:103EB00000BF2889A04328810BE000BF2889204348
:103EC000288106E00298FFF741F86F20307000204B
:103ED000E4E600BF0298FFF739F800203070204672
:103EE000DCE670B50025FFF72DF80546714800683F
:103EF000048D2846FFF72AF8204670BD2DE9FC5FA7
:103F00000446894692461E460020009020780528E7
:103F100004D0012030700020BDE8FC9FFFF712F8AC
:103F20000090BAF1000F03D0BAF1010F0AD104E0FA
:103F3000208920EA090020810BE0208940EA09005D
:103F4000208106E00098FFF701F871203070002012
:103F5000E2E700BF4FF0000B656855E0A87C40B376
:103F6000012838D0022802D0032844D111E020894A
:103F7000298A00EA0107288AB84209D13946284629
:103F8000FFF753FD8046B8F1010F01D14FF0010B4F
:103F900038E02089298A00EA01074FB139462846CE
:103FA000FFF743FD8046B8F1010F01D14FF0010B3F
:103FB00028E0288A218920EA0107288AB84209D105
:103FC00039462846FFF731FD8046B8F1010F01D18F
:103FD0004FF0010B16E0288A218920EA01074FB132
:103FE00039462846FFF721FD8046B8F1010F01D17F
:103FF0004FF0010B06E00098FEF7A8FF6F2030702D
:10400000002089E700BF2D68002DA7D10098FEF79A
:104010009DFFBBF1010F01D1FFF7A8F9FEF792FF59
:104020000090208901900098FEF790FF00203070EA
:10403000019871E72DE9F04104460D4600272078EC
:10404000052804D0012028700020BDE8F081FEF78B
:1040500079FF074626893846FEF778FF002028704A
:104060003046F2E72DE9F04150211348FFF76AF896
:1040700000250EE0681C86B20F4800EB051400EB2B
:104080000617002020706760AFF2E020E060681C37
:1040900085B2042DEED3084800EB051400202070F3
:1040A0006060AFF2F820E060034804490860BDE8B2
:1040B000F081000070000020840E00204C000020E1
:1040C0002DE9FC5F05460F4691469A460020009078
:1040D000FEF738FF00906F480468006820B16D4813
:1040E000006840686B4908600098FEF72FFF2CB904
:1040F0005A208AF800000020BDE8FC9FA8462E4602
:10410000781E01904FF0000B05E04E44C8F80060A7
:10411000B0460BF1010B01988345F6D30020C8F897
:104120000000256065602761E760C4F808908AF8A0
:1041300000002046E0E72DE9F04104460D46002747
:10414000FEF700FF0746206968B166683068606066
:104150002069401E20613846FEF7F8FE00202870D6
:104160003046BDE8F0813846FEF7F0FE5D2028704D
:104170000020F6E72DE9F04106460C4615460027DB
:104180004548007820B1112028700020BDE8F0815A
:10419000FEF7D8FE0746706920602068FFF7CCFA6A
:1041A00080463846FEF7D2FE002028704046EDE7F4
:1041B0002DE9F04105460E461446002736480078A2
:1041C00018B112202070BDE8F081FEF7BBFE074653
:1041D0006E613846FEF7BAFE0020207000BFF2E79D
:1041E00070B504460D460026FEF7ACFE0646D4E93F
:1041F0000310884204D33046FEF7A8FE5E2070BD4F
:104200006068286065602069401C20613046FEF7C8
:104210009DFE0020F3E770B505460C460026FEF72C
:1042200091FE06462868206068686060A868A06003
:10423000E868E060286920613046FEF787FED4E92F
:104240000301401A6061002070BD70B578211348E9
:10425000FEF778FF00240EE004EB44000F4901EB69
:10426000C005601C00EB400001EBC00068600CA0C2
:104270006861601C84B2042CEED304EB440007494F
:1042800001EBC0050020686005A06861084601498F
:10429000086070BD840000205D0000202C280020F4
:1042A0003F0000002DE9F04106460D464FF00008A2
:1042B0003078022804D0012028700020BDE8F08169
:1042C000FEF740FE80467468E08A78B12169081DD7
:1042D00020610F68E08A401EE082A1682069884260
:1042E00001D1606820610020287002E01F20287042
:1042F00000274046FEF72AFE3846DFE72DE9F04169
:1043000006460F464FF00008F748007810B100202D
:10431000BDE8F081FEF716FE8046F44805680068A7
:1043200020B1F24800684068F04908604046FEF756
:104330000DFE3DB3FEF706FE8046ED480468C4B1AD
:1043400000680068EA4908604046FEF7FFFD6660C5
:1043500006EB8700A060E6602661A7820020E0826D
:1043600002202870002028816C602846FFF7CCF9D5
:1043700008E0DE4800686860DC4805604046FEF7FB
:10438000E5FD00252846C3E72DE9F04704468946A8
:1043900015464FF0000A2078022804D0012028702A
:1043A0002046BDE8F087D048007818B10F2028706B
:1043B0002046F6E7FEF7C6FD8246A07A10B14FF020
:1043C000010801E04FF00008B9F1000F03D0B9F186
:1043D000010F45D11FE0B8F1000F15D16668C44840
:1043E00000683060C248066000202070BF48006846
:1043F000606000202081BD4804605046FEF7A6FDA5
:1044000000202870002705E05046FEF79FFD492058
:10441000287027462BE005E0002304221946204699
:10442000FFF701F9A07A0028F6D16668B048006865
:104430003060AF48066000202070AC4800686060C3
:1044400000202081A94804605046FEF77FFDB8F1A6
:10445000010F01D1FEF78AFF00202870002706E037
:104460005046FEF773FD07202870274600BF00BFA7
:10447000384696E770B505460026FEF763FD06460A
:104480006C686068E060606820610020E08230460F
:10449000FEF75CFD002070BD2DE9F0470746884619
:1044A00015464FF000093878022804D00120287002
:1044B0000020BDE8F0878C48007818B102202870F1
:1044C0000020F6E78B48007818B10D2028700020F6
:1044D000EFE7FEF737FD81467C68E08A98B12169F5
:1044E000081D20610E68E08A401EE082A1682069F4
:1044F000884201D1606820614846FEF727FD002010
:1045000028703046D5E77C48006890F8300040F0CD
:1045100004007949096881F830000020764909686B
:1045200081F8310074480068C0F82C803846FFF7E5
:10453000B3F84846FEF70AFDFEF718FFFEF702FD46
:1045400081466D48006890F8310020B101280DD0F7
:1045500002280AD105E068480068066A0020287031
:104560000DE000260E20287009E000BF39466248A1
:104570000068FFF743F800260A20287000BF00BF3C
:1045800000205D49096881F830005B49096881F8BD
:10459000310059490968C8615749096808624846A5
:1045A000FEF7D4FC304684E72DE9F04104460F467F
:1045B00015464FF000082078022804D0012028700A
:1045C0000020BDE8F081FEF7BDFC8046A07A20B354
:1045D00000267FB1012F0CD107E002230422002125
:1045E0002046FFF720F8701CC6B2A07A0028F4D14C
:1045F00009E000BF0223042200212046FFF713F840
:10460000701CC6B200BF00BF4046FEF79FFCFEF71D
:10461000ADFE0E2028703046D3E74046FEF796FCEC
:104620000020287000BFCCE72DE9F04105460E467A
:1046300000272878022802D00120BDE8F081FEF78B
:1046400081FC0746A87A60B100230422314628463F
:10465000FEF7E9FF3846FEF779FCFEF787FE0020FB
:10466000EBE76C68E08AA18A884204DB3846FEF7F3
:104670006DFC1E20E1E7E168081DE0600E60E08A45
:10468000401CE082D4E90210884201D16068E060F9
:104690003846FEF75BFC0020CFE72DE9F0410546E8
:1046A0000E4600272878022802D00120BDE8F081BC
:1046B000FEF748FC0746A87A60B100230422314681
:1046C0002846FEF7B0FF3846FEF740FCFEF74EFEE8
:1046D0000020EBE76C68E08AA18A88420EDB38464E
:1046E000FEF734FC1E20E1E75D00002048000020BA
:1046F000880000205E0000207000002061682069B2
:10470000884201D1A06820612069001F20612069D2
:104710000660E08A401CE0823846FEF717FC002065
:10472000C4E72DE9F04105460F4616464FF0000854
:104730002878022802D00120BDE8F081FEF702FCB3
:104740008046A87AE8B106F0010050B105E00023E8
:10475000042239462846FEF766FFA87A0028F6D1DB
:1047600005E00023042239462846FEF75CFF404658
:10477000FEF7ECFB06F0040008B9FEF7F7FD002099
:10478000DAE76C68E08AA18A884204DB4046FEF7DB
:10479000DDFB1E20D0E706F0020058B161682069F9
:1047A000884201D1A06820612069001F2061206932
:1047B000076009E0E168081DE0600F60D4E90210BD
:1047C000884201D16068E060E08A401CE082404697
:1047D000FEF7BCFB0020AFE72DE9F04705460C468D
:1047E0004FF0000A2878022802D00120BDE8F087A7
:1047F000FEF7A8FB8246A87A207405F10B0804F1A5
:104800000809002705E018F8010B09F8010B781CCE
:10481000C7B2082FF7D36E68F08A18B13069006804
:10482000206001E000202060F08AA080B08AE08053
:104830005046FEF78BFB0020D8E72DE9F0416021C0
:104840001048FEF77FFC00240DE0601C86B204EBEC
:1048500044000C4901EBC00506EB460001EBC00724
:104860002F60601C84B2032CEFD304EB4400054995
:1048700001EBC00500202860084603490860BDE838
:10488000F0810000A42800208800002070B50446B4
:1048900000262078032801D0002070BDFEF752FBCF
:1048A0000646258915B12089401E20813046FEF735
:1048B0004DFB2846F1E770B505460026D248007842
:1048C00008B1002070BDFEF73DFB0646CF480468E6
:1048D000006820B1CD4800684068CC490860304687
:1048E000FEF734FB3CB1032020702581002060607E
:1048F0002046FEF709FF2046E4E72DE9F04704468D
:10490000884615464FF000092078032804D001207E
:1049100028702046BDE8F087BB48007818B10F200A
:1049200028702046F6E7FEF70DFB8146A07A08B115
:10493000012700E00027B8F1000F03D0B8F1010F04
:1049400035D117E07FB900202070B0480068606062
:1049500000202081AD4804604846FEF7F7FA0020A9
:104960002870002605E04846FEF7F0FA4920287036
:10497000264623E005E00023012219462046FEF7E3
:1049800052FEA07A0028F6D12070A048006860602E
:10499000002020819D4804604846FEF7D7FA012F89
:1049A00001D1FEF7E3FC00202870002606E048460F
:1049B000FEF7CCFA07202870264600BF00BF30461D
:1049C000A8E72DE9F04105460E4614460027287851
:1049D000032803D001202070BDE8F0818A480078C8
:1049E00010B102202070F7E78948007810B10D203F
:1049F0002070F1E7FEF7A6FA0746288940B128891A
:104A0000401E28813846FEF7A1FA00202070E3E717
:104A10008048006890F8300040F001007D49096846
:104A200081F8300000207B49096881F8310079481D
:104A30000068C6622846FEF72FFE3846FEF786FA63
:104A4000FEF794FCFEF77EFA07467248006890F87D
:104A5000310020B1012809D0022806D102E000204F
:104A600020700BE00E20207008E000BF2946694846
:104A70000068FEF7C3FD0A20207000BF00BF0020C1
:104A80006449096881F830006249096881F8310099
:104A900060490968C8613846FEF758FA00BF9BE7CD
:104AA0002DE9F04104460F4615464FF000082078E6
:104AB000032804D0012028700020BDE8F081FEF713
:104AC00041FA8046A07A20B300267FB1012F0CD195
:104AD00007E00223012200212046FEF7A4FD701CFE
:104AE000C6B2A07A0028F4D109E000BF0223012257
:104AF00000212046FEF797FD701CC6B200BF00BF24
:104B00004046FEF723FAFEF731FC0E2028703046AF
:104B1000D3E74046FEF71AFA0020287000BFCCE722
:104B200070B5044600252078032801D0012070BD0F
:104B3000FEF708FA0546A07A60B100230122194663
:104B40002046FEF770FD2846FEF700FAFEF70EFC41
:104B50000020ECE720894FF6FF71884207D22089B8
:104B6000401C20812846FEF7F1F90020DFE72846A7
:104B7000FEF7ECF93320DAE72DE9F04704460D465D
:104B80004FF000092078032802D00120BDE8F0870B
:104B9000FEF7D8F98146A07AA87204F10B0705F157
:104BA0000208002605E017F8010B08F8010B701C3D
:104BB000C6B2082EF7D3208928804846FEF7C6F9EA
:104BC0000020E3E72DE9F04104460E461546002794
:104BD0002078032803D001202870BDE8F081FEF77B
:104BE000B1F9074600202870208908B1268105E028
:104BF000A07A08B9268101E0492028703846FEF7DE
:104C0000A5F900BFE9E700005D0000204800002092
:104C10005E000020700000202DE9FF5F814688467D
:104C200000200090FEF78EF90090F94850F8280017
:104C300030B10098FEF78AF9282004B0BDE8F09F53
:104C4000B9F1FF0F03D1F348006890F83290F048B3
:104C500050F8294024B90098FEF778F92920ECE7AC
:104C6000012C04D10098FEF771F94320E5E74FEAE3
:104C7000E80708F0070003900120B84000F0FF0AA1
:104C800001210398814001F0FF0B0020E04941F829
:104C90002900084640F8284014F8346FA0780290A4
:104CA0006078343C0190DC48815D01980140D1B1CD
:104CB000D948805D01998843D74988550846805D69
:104CC00028B9D648007802998843D4490870D34857
:104CD000007840EA0A00D1490870CF48C05D40EA38
:104CE0000B00CD49C855E569D5B105F10B00805DD4
:104CF0000199884305F10B0188550846805D18B974
:104D0000A87A02998843A872A87A40EA0A00A87291
:104D100005F10B00C05D40EA0B0005F10B01C85521
:104D200084F8328084F83470039884F8330084F86F
:104D300036A084F835B00098FEF708F9B848007836
:104D4000012801D1FEF712FB002076E72DE9FE4F86
:104D500006460F4690461C464FF00009FEF7F2F853
:104D60008146B048007828B14846FEF7EFF83C206D
:104D7000BDE8FE8FA64850F8240060BB0120A4497E
:104D800041F824004846FEF7E1F800234246394640
:104D90003046FDF79AFF82460020009001900346BE
:104DA0000246514602902046FEF7D0FC054635B932
:104DB0009B48007801280CD1FEF7D8FA09E0FEF7ED
:104DC000C1F881460020924941F824004846FEF788
:104DD000BDF82846CCE74846FEF7B8F82820C7E7D4
:104DE00002F0010343B102F002032BB102E0491EBD
:104DF000002308C00029FAD170472DE9F04F85B093
:104E000081468A4693461C46DDE90F78129D0020B4
:104E10000390FEF797F803908248007830B103982A
:104E2000FEF794F83C2005B0BDE8F08F784850F8C4
:104E3000240088BB0120764941F824000398FEF73E
:104E400085F82A4641463846FFF7CAFF2B465A46A0
:104E500051464846FDF739FF04901198CDE900808E
:104E600002953A4620460E9B0499FEF76FFC0646D3
:104E700036B96B48007801280CD1FEF777FA09E0C3
:104E8000FEF760F803900020614941F82400039880
:104E9000FEF75CF83046C6E7FFE70398FEF756F8E2
:104EA0002820C0E72DE9F041054600275D4800783D
:104EB00010B14020BDE8F0813F2D01D13E20F9E73F
:104EC000FEF740F80746FF2D03D15248006890F8DE
:104ED00032504F4850F8254024B93846FEF736F88E
:104EE0004320E7E7012C04D13846FEF72FF83D2098
:104EF000E0E714F8340F4849085C6178884321786A
:104F0000454A505414F834091146085C30B994F8F5
:104F1000361042480078884340490870E06918B16B
:104F20002046E169FEF76AFB666A16B13046FEF775
:104F30006AFD0020E06284F8300084F831003A48CD
:104F40000078FF2804D238480078401C36490870A1
:104F50003846FDF7FBFFFEF750FBFDF7F3FF074672
:104F60003148007820B130480078401E2E49087042
:104F70002046FDF7A7FE2D480078401E2B490870FB
:104F80000020234941F82500A06930B9002061695B
:104F9000886127496069086005E0D4E90501486136
:104FA000D4E90510886123480068606121480460E5
:104FB00021A0E0643846FDF7C9FF194800780128B0
:104FC00001D1FEF7D3F9002074E72DE9F041044642
:104FD00000273F2C02D13E20BDE8F081FF2C0BD1F1
:104FE000FDF7B0FF07460B48006890F83760384679
:104FF000FDF7ACFF3046EFE7FDF7A4FF0746044896
:1050000050F82450D5B93846FDF7A0FF4320E3E718
:10501000D4120020700000206200002061000020F7
:105020006A0000205D0000205E0000206B00002070
:105030007C000020740000203F000000012D04D1FE
:105040003846FDF783FF3D20C6E73F2085F837004F
:105050003846FDF77BFF0020BEE72DE9F047064606
:105060000F4614464FF00008D548007820B11120B3
:1050700020700020BDE8F087FDF764FF8046FF2E1A
:1050800003D1D048006890F83260CF4850F82650DD
:1050900035B94046FDF75AFF432020700020E9E76C
:1050A000012D06D14046FDF751FF4320207000201E
:1050B000E0E7E86C38603868FEF73EFB8146404622
:1050C000FDF744FF002020704846D3E72DE9F0416A
:1050D00006460F4614464FF00008B948007818B14C
:1050E00012202070BDE8F081FDF72CFF8046FF2ED6
:1050F00003D1B448006890F83260B34850F82650A5
:105100002DB94046FDF722FF43202070EAE7012D2C
:1051100005D14046FDF71AFF43202070E2E7EF6417
:105120004046FDF713FF0020207000BFDAE770B59E
:1051300005460026FDF706FF0646A34850F8254021
:1051400024B93046FDF702FF462070BD012C04D182
:105150003046FDF7FBFE4320F7E794F8300000F0FF
:10516000080060B314F8300F00F0F700207014F856
:105170003009F8B9E06AC8B93434A078934909789D
:1051800008439249087020789149085C6178084387
:1051900014F834198E4A50543046FDF7D7FE8D4826
:1051A0000078012809D1FEF7E1F806E03046FDF766
:1051B000CDFE02E03046FDF7C9FE0020C5E73046CF
:1051C000FDF7C4FE4420C0E72DE9F04707460D4631
:1051D0004FF0000A002028606860FDF7B3FE8246A9
:1051E000FF2F03D17748006890F83270764850F866
:1051F00027402CB95046FDF7A9FE4320BDE8F087B3
:10520000012C04D15046FDF7A1FE4320F6E7207C97
:1052100000F0010020B95046FDF798FE4520EDE76B
:105220000026D4F80C90D4F808805046FDF78EFE86
:1052300000E0761C58F8041B0029FAD02E60A9EB78
:10524000060068600020D9E72DE9F04105464FF0DF
:105250000008FDF777FE8046FF2D05D1594800680C
:1052600090F83250012608E05648006890F8320065
:10527000A84201D1012600E00026534850F82540FD
:105280002CB94046FDF762FE4820BDE8F081012CB4
:1052900004D14046FDF75AFE4320F6E794F83470F7
:1052A0004B48C05D94F8351088434949C8550846B5
:1052B000C05D30B994F836104448007888434349BB
:1052C000087094F8300040F0080084F83000404640
:1052D000FDF73CFE012E01D1FEF748F80020D4E78F
:1052E0002DE9F04105460E460027FDF72BFE074647
:1052F000FF2D03D13348006890F83250324850F8FF
:1053000025402CB93846FDF721FE2920BDE8F08163
:10531000012C04D13846FDF719FE4320F6E754224C
:1053200021463046FEF7FEF93846FDF70FFE002015
:10533000ECE72DE9F04704460E4617464FF000090A
:10534000FDF700FE8146FF2C02D11E48056802E0F1
:105350001D4850F8245005F1500050F8268048466A
:10536000FDF7F4FD002038704046BDE8F0872DE9D8
:10537000F04704460E46174698464FF00009FDF7E1
:10538000E1FD8146FF2C02D10E48056802E00E487F
:1053900050F8245005F1500040F826704846FDF7BB
:1053A000D5FD002088F80000BDE8F08710B505485D
:1053B0000068FDF784FCFF20FFF774FD10BD0000BE
:1053C0005D00002070000020D41200206100002049
:1053D000620000206A00002070B505460026624881
:1053E000007800B170BD6148007800B1FAE71DB3E4
:1053F000FDF7A8FD06465E48006890F834405D4819
:10540000005D5B49096891F8351088435949085592
:105410000846005D40B95648006890F83610564876
:10542000007888435449087051480068C562304686
:10543000FDF78CFDFDF79AFF00BFD3E72DE9F041A2
:1054400005460E4617461C464748007810B15520C1
:10545000BDE8F0814548007808B13220F8E742F213
:10546000107060434FF47A71B0FBF1F14FF461605A
:105470006843C6EB061200EB8200384440F271220A
:10548000504301EB00184046FFF7A6FF0020DFE77E
:1054900070B5054600263F2D01D32A2070BDFDF7CB
:1054A00051FD0646354850F8254024B93046FDF7F1
:1054B0004DFD4320F2E7012C04D13046FDF746FDB7
:1054C0004320EBE7E06A20B93046FDF73FFD50206E
:1054D000E4E70020E06294F8300000F0370040B1CB
:1054E00014F8300F20F03700207001206070303C3D
:1054F00002E0002084F8310094F8300000F0080049
:10550000A8B93434A0781C49097808431A490870AE
:1055100020781849085C6178084314F83419154A52
:1055200050543046FDF712FDFDF720FF02E03046F3
:10553000FDF70CFD0020B1E770B50025FDF702FD79
:1055400005460F4804682846FDF700FD204670BD5B
:1055500070B504460025FDF7F5FC054608480460D3
:105560002846FDF7F3FC70BD5D0000205E000020C2
:10557000700000206200002061000020D412002092
:105580008C000020064C074D06E0E06840F0010367
:1055900094E8070098471034AC42F6D3FAF7F8FDC8
:1055A000C8560008E856000802E008C8121F08C1E3
:1055B000002AFAD170477047002001E001C1121F94
:1055C000002AFBD170470000010002000100030027
:1055D00001000200010004000100020001000300BC
:1055E00001000200010005000100020001000300AB
:1055F000010002000100040001000200010003009C
:105600000100020001000600010002000100030089
:10561000010002000100040001000200010003007B
:10562000010002000100050001000200010003006A
:10563000010002000100040001000200010003005B
:105640000100020001000700010002000100030048
:10565000010002000100040001000200010003003B
:10566000010002000100050001000200010003002A
:10567000010002000100040001000200010003001B
:105680000100020001000600010002000100030009
:1056900001000200010004000100020001000300FB
:1056A00001000200010005000100020001000300EA
:1056B00001000200010004000100020001000300DB
:1056C0000100020001000000E85600080000002070
:1056D00090000000A85500087857000890000020AE
:1056E000782C0000B8550008000000000000000001
:1056F00000000000000000000000000000000000AA
:10570000000000000000000102030401020304067F
:1057100007080900007A030A0000000000000000EA
:105720000102030406070809000000000000000051
:105730000000000000000000000000000000000069
:105740000000000000000000000000000000000059
:105750000000000000000000000000000000000049
:105760000000000000000000000000000000000039
:08577000000000000000000031
:040000050800018965
:00000001FF
