:020000040800F2
:10000000F8040020C12B0008DD010008DF01000812
:10001000E3010008E7010008EB0100080000000010
:10002000000000000000000000000000EF010008D8
:10003000F101000800000000F3010008D92B0008BE
:10004000DB2B0008DB2B0008DB2B0008DB2B000878
:10005000DB2B0008DB2B0008DB2B0008DB2B000868
:10006000DB2B0008DB2B0008DB2B0008DB2B000858
:10007000DB2B0008DB2B0008DB2B0008DB2B000848
:10008000DB2B0008DB2B0008DB2B0008DB2B000838
:1000900035030008DB2B0008DB2B0008DB2B0008F6
:1000A000DB2B0008DB2B0008DB2B0008DB2B000818
:1000B000DB2B0008AD040008DB2B0008DB2B00085D
:1000C000DB2B0008DB2B0008DB2B0008DB2B0008F8
:1000D000DB2B000895050008DB2B0008DB2B000854
:1000E000DB2B0008DB2B0008DB2B0008DB2B0008D8
:1000F000DB2B0008DB2B0008DB2B0008DB2B0008C8
:10010000DB2B0008DB2B0008DB2B0008DB2B0008B7
:10011000DB2B0008DB2B0008DB2B0008DB2B0008A7
:10012000DB2B0008DB2B0008DB2B0008DB2B000897
:10013000DB2B0008DB2B0008DB2B0008DB2B000887
:10014000DB2B0008DB2B0008DB2B0008DB2B000877
:10015000DB2B0008DB2B0008DB2B0008DB2B000867
:10016000DB2B0008DB2B0008DB2B0008DB2B000857
:10017000DB2B0008DB2B0008DB2B0008DB2B000847
:10018000DB2B0008DB2B0008DFF80CD002F02AFD87
:10019000004800479D010008F804002002F076FCAA
:1001A0004FF4A06000F04AFA42F2CF0141F28730EA
:1001B00000F050F900F030F90DE02021064800F081
:1001C00099FB642000F006F92021034800F090FB21
:1001D000642000F0FFF8F0E700000240704700BF25
:1001E000FEE700BFFEE700BFFEE700BFFEE7704787
:1001F000704770472DE9F0418AB004460D46164617
:100200001F46DDF840800121084600F049FF01212A
:10021000480600F078FF4FF4C050089002208DF897
:10022000240000208DF8260003208DF825000120F1
:100230008DF8270008A9644800F0DEFA09220B2196
:10024000614800F064FB09220C215F4800F05FFB6D
:1002500000208DF81A008DF81B008DF81C0001207D
:100260008DF81D0000208DF81E008DF81F008DF800
:1002700016808DF817408DF818608DF81950ADF87C
:10028000147005A9514801F0B4FE00208DF80E004D
:1002900001208DF80F008DF810000820ADF8040043
:1002A00041F20400ADF806000820ADF8080041F660
:1002B0000400ADF80A000020ADF80C0001208DF814
:1002C000110001A801F01FFF01208DF80E008DF82C
:1002D0000F008DF810000820ADF8040042F2040071
:1002E000ADF806001020ADF8080040F60400ADF8A7
:1002F0000A000020ADF80C0001208DF8110001A8C3
:1003000001F001FF01220221304802F0FBF9142024
:100310008DF8000001208DF8010000208DF802000A
:1003200001208DF80300684600F08DF900200AB026
:10033000BDE8F08100B585B06A460021234802F08F
:10034000C6F80198B0F5813F09D02149084458B159
:10035000B0F5807F0DD0B0F57E4F14D10EE0802136
:10036000194800F0C7FA0EE01021174800F0C0FA53
:1003700009E04021144800F0BDFA00BF40211248B6
:1003800000F0B6FA00BF00BF05B000BD00B585B0F3
:100390004FF48230019004208DF8080000208DF881
:1003A000090003208DF80A0057208DF80B00482122
:1003B0008DF80C1055218DF80D106946034801F099
:1003C00091FF05B000BD0000000002400064004045
:1003D00000FDFEFF10B5002107E04AF2104200BF09
:1003E0001300A2F10102FBD1491C8142F5D310BDDB
:1003F00010B5002106E0282200BF1300A2F101027F
:10040000FBD1491C8142F6D310BD00BF0100A0F111
:10041000010290B2FAD170471CB50121084600F0E4
:100420003FFEF020009001208DF8040000208DF8A0
:10043000060003208DF8050001208DF807006946AD
:10044000034800F0D9F9F021014800F051FA1CBD31
:10045000000002407FB505460C460121022000F055
:1004600052FE0295ADF804400020ADF80600ADF84C
:100470000C0001A9164800F0FEFF012211461448A5
:1004800001F09AFC1D208DF8000001208DF801007C
:1004900003208DF8020001208DF80300684600F06B
:1004A000D2F801210A4801F06FF87FBD10B5012193
:1004B000074801F098FC012805D11021054800F0FB
:1004C00022FAFFF763FF0121014801F09DFC10BDF6
:1004D000000400400000024000BF704770B50446B1
:1004E0000D4600BF4021514800F0F7FB0028F9D02D
:1004F000E1B24E4800F041FB204670BD10B5044605
:1005000000BF8021494800F0E8FB0028F9D04748A7
:1005100000F037FB10BD10B586B004460121084637
:1005200000F0BEFD0121102000F0FEFD0722092190
:100530003F4800F0ECF907220A213D4800F0E7F9B6
:100540004FF4C060049002208DF8140000208DF854
:10055000160002208DF8150001208DF8170004A95F
:10056000334800F049F900940020ADF80400ADF8DC
:100570000600ADF80800ADF80C000C20ADF80A003C
:1005800069462A4800F046FA0121284800F0CAFAD4
:1005900006B010BD10B540F22551244800F0B3FB61
:1005A00018B1224800F0EDFAC4B22248008800F4E5
:1005B000004058BB1F48008800F4804060B10A2CFE
:1005C00003D000201B49088020E01A48008840F42E
:1005D00000401849088019E00D2C06D11548008804
:1005E00040F480401349088010E012480088C0F3AE
:1005F0000D0011490C540F480088401C0D4908801B
:1006000008460088C72801DD0020088010BD10B50D
:1006100004462146054800F0B0FA00BF8021034897
:1006200000F05BFB0028F9D010BD00000010014075
:1006300000000240040000202C0000203249014349
:10064000324A1160704770B5002100230F22C47830
:100650001CB32E4C246804F4E064C4F5E064C4F3D5
:100660000721C1F10404E3B20A4144789C40E1B29D
:100670008478144021430C07210E254C05786155E0
:10068000047804F01F050124AC4005786D11AD001D
:1006900005F1E025C5F8004109E0047804F01F05E4
:1006A0000124AC401B4D0678761145F8264070BDFC
:1006B000194A0A400243154B1B1F1A60704739B193
:1006C000124A121D12680243104B1B1D1A6006E0ED
:1006D0000E4A121D126882430C4B1B1D1A60704794
:1006E000042808D14FF0E021096941F004014FF0DE
:1006F000E022116107E04FF0E021096921F00401D7
:100700004FF0E022116170470000FA050CED00E0A7
:1007100000E400E080E100E080FFFF1F10B5044628
:100720008C48844208D10121084600F00EFD0021CA
:10073000012000F00AFD5EE08748844208D10121D3
:10074000022000F002FD0021022000F0FEFC52E039
:100750008248844208D10121042000F0F6FC0021E7
:10076000042000F0F2FC46E07D48844208D10121DB
:10077000082000F0EAFC0021082000F0E6FC3AE046
:100780007848844208D10121102000F0DEFC0021CD
:10079000102000F0DAFC2EE07348844208D10121D9
:1007A000202000F0D2FC0021202000F0CEFC22E02E
:1007B0006E48844208D10121402000F0C6FC00218F
:1007C000402000F0C2FC16E06948844208D10121B3
:1007D000802000F0BAFC0021802000F0B6FC0AE086
:1007E0006448844207D10121801500F0AEFC00214D
:1007F000A01500F0AAFC10BDF0B50A4600210023A8
:10080000002400BF3DE0012505FA01F3156805EA63
:1008100003049C4234D105684F000326BE40B54313
:10082000056015794E00B5400668354305601579B9
:10083000012D02D01579022D16D185684F000326AF
:10084000BE40B543856055794E00B5408668354356
:100850008560456801268E40B543456045689679B8
:100860008E40B6B235434560C5684F000326BE4092
:10087000B543C560D5794E00B540C6683543C560FF
:10088000491C1029BFD3F0BD4FF6FF710160002154
:10089000017141718171C171704708B54FF48032A7
:1008A0000092009A0A430092009AC261C161009AC4
:1008B000C261C2690092C269009208BD024600206E
:1008C00013690B400BB1012000E000207047014686
:1008D000086980B270470246002053690B400BB193
:1008E000012000E0002070470146486980B270474F
:1008F00001837047418370470AB1018300E041835F
:1009000070474161704742694A4042617047F0B5A3
:10091000002300244D07ED0E02FA05F3CE1000F17E
:10092000200555F826504E07F70E0F26BE40B5435A
:10093000CF1000F1200646F82750CE1000F1200518
:1009400055F8265045EA0304CE1000F1200545F87D
:100950002640F0BD000002400004024000080240B2
:10096000000C024000100240001402400018024037
:10097000001C02400020024010B50446F7488442A3
:1009800008D10121102000F037FC0021102000F0D8
:1009900033FC3EE0F248844209D10121480400F0D2
:1009A0001AFC00214FF4003000F015FC31E0ED4856
:1009B000844209D10121880400F00DFC00214FF48C
:1009C000802000F008FC24E0E748844209D101219E
:1009D000C80400F000FC00214FF4002000F0FBFBF5
:1009E00017E0E248844209D10121080500F0F3FB39
:1009F00000214FF4801000F0EEFB0AE0DC48844256
:100A000007D10121202000F0F7FB0021202000F079
:100A1000F3FB10BD2DE9FF4705460E460024A14615
:100A200000BFA046B08900B100BF2C8A24F4405416
:100A3000F08804432C82AC8941F20C608443B08876
:100A400031890843718908430443AC81AC8A24F49A
:100A50004074B0890443AC82684600F08CFABF4809
:100A6000854202D0C248854202D1DDF80C9001E0F7
:100A7000DDF80890A88900F4004040B109EBC900F6
:100A800000EB091031684900B0FBF1F707E009EB12
:100A9000C90000EB091031688900B0FBF1F7642050
:100AA000B7FBF0F004012009642101FB1078A8894C
:100AB00000F4004040B1322000EBC800B0FBF1F080
:100AC00000F00700044308E0322000EB0810642126
:100AD000B0FBF1F000F00F0004432C81BDE8FF876C
:100AE0004FF41651016000218180C18001810C21E9
:100AF000418100218181704710B502460020108A93
:100B000020F470600B884C8823438C882343CC8866
:100B100023431843108210BD002101804180818051
:100B2000C180704721B1828942F40052828104E081
:100B300082894DF6FF731A4082817047028B02F45E
:100B40007F420283028B0A430283704721B182896C
:100B500042F40042828103E08289C2F30E02828164
:100B6000704721B1828A42F40062828204E0828A64
:100B70004FF2FF731A4082827047C1F308028280ED
:100B8000704701468888C0F308007047028A4FF614
:100B9000F0731A400282028A0A430282704721B12E
:100BA000828942F00202828104E082894FF6FD735D
:100BB0001A408281704782894FF2FF731A40828106
:100BC00082890A4382817047028A4FF6DF731A4096
:100BD0000282028A0A430282704721B1028A42F4E9
:100BE0008042028204E0028A4BF6FF731A400282BE
:100BF0007047818941F001018181704721B1828A6A
:100C000042F00802828204E0828A4FF6F7731A40AB
:100C100082827047028BD2B20283028B42EA0122A7
:100C20000283704721B1828A42F02002828204E06E
:100C3000828A4FF6DF731A408282704721B1828A1E
:100C400042F01002828204E0828A4FF6EF731A406B
:100C500082827047828A4FF6FB731A408282828AB0
:100C60000A438282704721B1828A42F00202828264
:100C700004E0828A4FF6FD731A40828270471AB1EF
:100C8000838A0B43838202E0838A8B43838270478B
:100C9000F0B50346002400260025002040F66A1720
:100CA000B94200D100BF1846C1F3421401F01F063B
:100CB000012707FA06F5012C01D10C3004E0022CC3
:100CC00001D1103000E014301AB107682F430760DB
:100CD00002E00768AF430760F0BD02460020B1F5AF
:100CE000007F00D100BF13880B400BB1012000E052
:100CF0000020704701F40072B2F5007F00D100BF00
:100D0000CA430280704770B50246002400230025C4
:100D1000002040F66A16B14200D100BFC1F342156F
:100D200001F01F03012606FA03F3012D02D1968973
:100D3000334006E0022D02D1168A334001E0968A44
:100D400033400C12012606FA04F41688344013B11D
:100D50000CB1012000E0002070BD00000010014037
:100D60000044004000480040004C0040005000405B
:100D70000014014010B50022002340F66A14A1427D
:100D800000D100BF0A1201249440A3B2DC430480C6
:100D900010BD0000FA48006840F00100F849086002
:100DA0000020F74908310860F5480068F549084017
:100DB000F3490860F448091D0860081F006820F422
:100DC0008020091F08600020ED490C310860704741
:100DD0000021EB4A921C117011460870704710B543
:100DE00001460022002300204A11012A02D1E44CCE
:100DF000236808E0022A03D1E14C7034236802E042
:100E0000DF4C7434236801F01F02012494401C401D
:100E10000CB1012000E0002010BD38B5002000908A
:100E20000024002500BF3120FFF7D9FF05460098B8
:100E3000401C00900098B0F5A06F01D0002DF2D0BA
:100E40003120FFF7CCFF08B1012400E00024204648
:100E500038BD01460020CA4A106820F0F80040EA78
:100E6000C10010607047C949086070470021C44A3A
:100E7000703211701170012802D004280AD104E0E8
:100E80000121BF4A7032117005E00521BC4A703261
:100E9000117000E000BF00BF7047BD490860704797
:100EA00070B5049C41EA82150126C6EB530645EA5B
:100EB0000645054345EA0465B14E361D356070BDF3
:100EC000B24908667047820142EA0172AC4B843332
:100ED0001A607047AD4988667047AC49C86470476E
:100EE00002460020A64B0833186820F0EC6042EA66
:100EF00001031843A24B08331860704702460020D4
:100F00009F4B0833186820F0784042EA01031843E9
:100F10009B4B08331860704701460020984A0832FE
:100F2000106820F0030008431060704794480830B0
:100F3000006800F00C00704701460020904A08321B
:100F4000106820F0F0000843106070470146002050
:100F50008B4A0832106820F4E05008431060704754
:100F600001460020864A0832106820F4604040EABA
:100F7000C10010607047F0B5002100220024022556
:100F8000002602237E4F08373F6807F00C0121B18D
:100F9000042905D0082937D105E07E4F076036E0E7
:100FA0007D4F076033E0764F3F1D3F68C7F38056A3
:100FB000734F3F1D3F6807F03F036EB1764FB7FB9D
:100FC000F3F7DFF8BCC10CF1040CDCF800C0CCF383
:100FD000881C07FB0CF40CE06E4FB7FBF3F7DFF84F
:100FE000A0C10CF1040CDCF800C0CCF3881C07FB9A
:100FF0000CF4634F3F1D3F68C7F301477F1C7D0022
:10100000B4FBF5F7076002E0624F076000BF00BF66
:101010005B4F08373F6807F0F00109095F4F7A5CC2
:101020000768D7404760564F08373F6807F4E051DC
:10103000890A5A4F7A5C4768D7408760504F083713
:101040003F6807F46041490B544F7A5C4768D740CA
:10105000C760F0BD002100F44072B2F5407F0AD1B4
:10106000474A0832116821F4F8114D4A02401143F1
:10107000434A08321160424A70321268C0F30B03CF
:101080001A433F4B70331A60704741494439086036
:1010900070473F49403908607047424908607047CF
:1010A00039B1374A303212680243354B30331A6057
:1010B00006E0334A303212688243314B30331A60D3
:1010C000704739B12E4A3432126802432C4B343304
:1010D0001A6006E02A4A343212688243284B3433BD
:1010E0001A60704739B1264A383212680243244BDD
:1010F00038331A6006E0224A383212688243204BA5
:1011000038331A60704739B11D4A403212680243C1
:101110001B4B40331A6006E0194A40321268824382
:10112000174B40331A60704739B1154A4432126880
:101130000243134B44331A6006E0114A44321268EA
:1011400082430F4B44331A60704739B10C4A103256
:10115000126802430A4B10331A6006E0084A103244
:1011600012688243064B10331A607047E1B1044A9B
:10117000143212680243024B14331A6019E0000063
:1011800000380240FFFFF6FE103000240000474206
:10119000800E47420024F40040787D0107000020C3
:1011A000FFFCFF0F5C0147425B4A126882435A4BC7
:1011B0001A60704739B1584A121D12680243564BE3
:1011C0001B1D1A6006E0544A121D12688243524BDE
:1011D0001B1D1A60704739B14F4A0C321268024326
:1011E0004D4B0C331A6006E04B4A0C3212688243B6
:1011F000494B0C331A60704739B1474A10321268B4
:101200000243454B10331A6006E0434A103212681D
:101210008243414B10331A60704739B13E4A3C3229
:10122000126802433C4B3C331A6006E03A4A3C32B7
:1012300012688243384B3C331A60704739B1364AE2
:10124000403212680243344B40331A6006E0324A9F
:10125000403212688243304B40331A60704739B1D4
:101260002D4A4432126802432B4B44331A6006E085
:10127000294A443212688243274B44331A6070472C
:1012800039B1254A4C3212680243234B4C331A6061
:1012900006E0214A4C32126882431F4B4C331A60DD
:1012A000704739B11C4A5032126802431A4B50330E
:1012B0001A6006E0184A503212688243164B5033C7
:1012C0001A60704739B1144AD21F12780243124B88
:1012D000DB1F1A7006E0104AD21F127882430E4BB1
:1012E000DB1F1A7070470C486030006840F0807057
:1012F000094960310860704701460020064A083AF3
:1013000012680A400AB1012000E00020704702493B
:10131000891F0870704700001438024010B5044659
:10132000FE48844208D101210846FFF765FF0021ED
:101330000120FFF761FF9DE0B4F1804F08D101214A
:101340000846FFF748FF00210120FFF744FF91E026
:10135000F348844208D101210220FFF73CFF00211D
:101360000220FFF738FF85E0EE48844208D10121D2
:101370000420FFF730FF00210420FFF72CFF79E065
:10138000E948844208D101210820FFF724FF002109
:101390000820FFF720FF6DE0E448844208D10121D6
:1013A0001020FFF718FF00211020FFF714FF61E065
:1013B000DF48844208D101212020FFF70CFF0021E3
:1013C0002020FFF708FF55E0DA48844208D10121C8
:1013D0000220FFF711FF00210220FFF70DFF49E077
:1013E000D548844209D101210804FFF705FF0021F7
:1013F0004FF48030FFF700FF3CE0D048844209D131
:1014000001214804FFF7F8FE00214FF40030FFF7F8
:10141000F3FE2FE0CA48844209D101218804FFF776
:10142000EBFE00214FF48020FFF7E6FE22E0C548E6
:10143000844208D101214020FFF7CDFE0021402049
:10144000FFF7C9FE16E0C048844208D10121802080
:10145000FFF7C1FE00218020FFF7BDFE0AE0BB4878
:10146000844207D101218015FFF7B5FE0021A015A8
:10147000FFF7B1FE10BD00220288A84B98420ED0A3
:10148000AC4B98420BD0B0F1804F08D0A44B98429F
:1014900005D0A44B984202D0A34B984204D14FF6FA
:1014A0008F731A404B881A43A04B984207D0A04B29
:1014B000984204D04FF6FF431A400B891A4302802A
:1014C0004B68C3620B880385944B984202D0994BBA
:1014D000984201D18B7A03860123838270474FF0B3
:1014E000FF3141600021018001814180817270479C
:1014F0000185828270470A46002101884FF68F736A
:10150000194011430180704741627047C1627047C2
:101510000146486A70470146088D704721B102882C
:1015200042F00202028004E002884FF6FD731A4086
:101530000280704721B1028842F00402028004E078
:1015400002884FF6FB731A400280704721B102886F
:1015500042F08002028004E002884FF67F731A4056
:101560000280704702884FF6F7731A4002800288A3
:101570000A430280704702884FF6FF431A400280F8
:1015800002880A430280704721B1028842F00102BA
:10159000028004E002884FF6FE731A400280704712
:1015A00070B5002400220023058C4FF6FE763540EE
:1015B0000584028C8388048B4FF68F752C40B51EF2
:1015C0002C400D882C43751E2A408D892A434D8856
:1015D0002A43524DA84202D0564DA84213D14FF68D
:1015E000F7752A40CD892A434FF6FB752A408D882E
:1015F0002A434FF6FF652B404FF6FF552B400D8ACF
:101600002B434D8A2B43838004838D68456302847A
:1016100070BD70B5002400220023058C4FF6EF76D4
:1016200035400584028C8388048B48F6FF752C4076
:101630004FF6FF452C400D884FF6FF7606EA05254C
:101640002C434FF6DF752A408D8906EA05152A439B
:101650004D8806EA05152A43304DA84202D0354D83
:10166000A8421DD14FF67F752A40CD894FF6FF76EF
:1016700006EA05152A434FF6BF752A408D8806EA0B
:1016800005152A434FF6FF352B404FF2FF752B40CF
:101690000D8A06EA85052B434D8A06EA85052B430C
:1016A000838004838D688563028470BD70B50024D7
:1016B00000220023058C4FF6FF6635400584028C1E
:1016C0008388848B4FF68F752C404FF6FC752C4029
:1016D0000D882C434FF6FF552A408D894FF6FF7633
:1016E00006EA05252A434D8806EA05252A430B4DBF
:1016F000A84202D00F4DA84238D14FF2FF752A40C0
:10170000CD894FF6FF7606EA05252A434FF6FF35C9
:101710002A408D8806EA05252A4319E00000014089
:101720000004004000080040000C00400010004091
:10173000001400400004014000400140004401400A
:101740000048014000180040001C004000200040FC
:101750004EF6FF752B404DF6FF752B400D8A06EABD
:1017600005152B434D8A06EA05152B438380848398
:101770008D68C563028470BD70B50022002300240B
:10178000058C4EF6FF7635400584038C8488828B69
:1017900048F6FF752A404FF6FF452A400D884FF660
:1017A000FF7606EA05252A434DF6FF752B408D8905
:1017B00006EA05352B434D8806EA05352B43FE4DD9
:1017C000A84202D0FD4DA84208D14BF6FF752C402F
:1017D0000D8A4FF6FF7606EA85152C4384808283B6
:1017E0008D680564038470BD002101804180818083
:1017F00081608181C18101824182704770B5034659
:10180000002000241846183001258D40ACB21D8CF4
:10181000A5431D8409B108290AD100EB61000568C0
:101820004FF68F76354005600568154305600FE07B
:101830000D1FC5F34E052844056848F6FF76354070
:10184000056005684FF6FF7606EA02263543056017
:1018500070BD4163704781637047C1637047016425
:1018600070470A460021018B4FF68F7319401143D0
:10187000018370470A460021018B48F6FF73194027
:101880004FF6FF7303EA02231943018370470A46A8
:101890000021818B4FF68F7319401143818370476C
:1018A0000A460021818B48F6FF7319404FF6FF73FB
:1018B00003EA02231943818370470A460021018B02
:1018C0004FF6F77319401143018370470A46002110
:1018D000018B4FF2FF7319404FF6FF7303EA0223A7
:1018E0001943018370470A460021818B4FF6F77335
:1018F00019401143818370470A460021818B4FF2C2
:10190000FF7319404FF6FF7303EA022319438183E3
:1019100070470A460021018B4FF6FB7319401143B3
:10192000018370470A460021018B4FF6FF331940AF
:101930004FF6FF7303EA02231943018370470A46F7
:101940000021818B4FF6FB7319401143818370474F
:101950000A460021818B4FF6FF3319404FF6FF7383
:1019600003EA02231943818370470A460021018B51
:101970004FF67F7319401143018370470A460021D7
:10198000018BC1F30E014FF6FF7303EA02231943E3
:10199000018370470A460021818B4FF67F731940FF
:1019A0001143818370470A460021818BC1F30E01E8
:1019B0004FF6FF7303EA02231943818370470A46F7
:1019C0000021018C4FF6FD731940114301847047CB
:1019D0000A460021018C4FF6F77319401143018428
:1019E00070470A460021018C4FF6DF7319404FF60D
:1019F000FF7303EA02131943018470470A4600216A
:101A0000018C4FF67F7319404FF6FF7303EA021300
:101A10001943018470470A460021018C4FF6FF5399
:101A200019404FF6FF7303EA0223194301847047FC
:101A30000A460021018C4FF2FF7319404FF6FF73E5
:101A400003EA02231943018470470A460021018CEE
:101A50004DF6FF7319404FF6FF7303EA0233194343
:101A60000184704730B5002301248C40A3B2048C5C
:101A70009C430484048C02FA01F5ADB22C43048427
:101A800030BD30B5002304248C40A3B2048C9C43A9
:101A90000484048C02FA01F5ADB22C43048430BDF9
:101AA000828B4FF2FF331A408283828B4FF6FF7393
:101AB00003EA01231A4382837047F0B50C461546AA
:101AC000002100220026078C4EF6FF7C07EA0C0757
:101AD0000784818B028C4FF6FF7707EA043640F6C5
:101AE000FF4739404FF6FF7707EA052739434FF69E
:101AF000FF7707EA0337394345F6FF773A4046F464
:101B000080573A4381830284F0BD828B4FF6F37392
:101B10001A408283828B0A4382837047F0B50C4659
:101B20001546002100220026078C4FF6FF6C07EABD
:101B30000C070784818B028C4FF6FF7707EA042697
:101B40004FF60C7739404FF6FF7707EA03172F431C
:101B500039434FF2FF573A4046F480773A43818346
:101B60000284F0BD028B4FF2FF331A400283028BD6
:101B70004FF6FF7303EA01231A4302837047F0B55F
:101B80000C461546002100220026078C4FF6EF7CFC
:101B900007EA0C070784018B028C4FF6FF7707EAF0
:101BA000041640F6FF4739404FF6FF7707EA033740
:101BB00039434FF6FF7703E0000001400004014085
:101BC00007EA052739434FF65F773A4046F010079A
:101BD0003A4301830284F0BD028B4FF6F3731A403F
:101BE0000283028B0A4302837047F0B50C46154608
:101BF00000210022068C4FF6FE773E400684018BC2
:101C0000028C4FF60C7631407E1C06EA03162E43FA
:101C100031434FF6F576324044F0010632430183FA
:101C20000284F0BD70B505460C46208850B9238962
:101C3000A28861882846FFF7D8FFE1882846FFF789
:101C4000CBFF25E0208804280AD12389A288618857
:101C50002846FFF794FFE1882846FFF783FF17E047
:101C6000208808280AD12389A28861882846FFF79E
:101C700055FFE1882846FFF748FF09E02389A2883D
:101C800061882846FFF719FFE1882846FFF708FF1B
:101C900070BD002101804180012181800021C1802F
:101CA000018170472DE9F04105460C4600260127C9
:101CB000608808B9022600E00026A088012801D12A
:101CC000022700E001272088A0B92389A288618823
:101CD0002846FFF78AFFE1882846FFF77DFF238922
:101CE0003A4631462846FFF74AFFE1882846FFF783
:101CF00039FF13E02389A28861882846FFF73FFF58
:101D0000E1882846FFF72EFF23893A4631462846C8
:101D1000FFF76BFFE1882846FFF75EFFBDE8F08123
:101D20000146486B70470146886B70470146C86B97
:101D300070470146086C70470A884B881A438B88A5
:101D40001A43CB881A430B891A434B891A438B8950
:101D50001A43A0F84420704700210180418081800F
:101D6000C180018141818181704731B1B0F8442047
:101D700042F40042A0F8442005E0B0F84420C2F349
:101D80000E02A0F84420704721B1828842F004027C
:101D9000828004E082884FF6FB731A40828070478D
:101DA00021B1828842F00102828004E082884FF6ED
:101DB000FE731A40828070471AB183890B43838176
:101DC00002E083898B43838170478182704702469A
:101DD0000020138A0B400BB1012000E00020704767
:101DE000CA430282704730B5024600200023002417
:101DF000158A05EA0103958905EA010413B10CB1BE
:101E0000012000E0002030BDCA430282704741EA51
:101E10000203A0F8483070471AB183890B438381CD
:101E200002E083898B438381704721B1828842F02D
:101E30000802828004E082884FF6F7731A4082809D
:101E4000704701894FF6F8721140018170470A46C8
:101E5000002101894FF68F731940114301817047AA
:101E600030B504460D4629462046FFF7F0FF20898D
:101E700040F00700208130BD2DE9F04104460D46B9
:101E800016461F46602D06D13B46012231462046AC
:101E9000FFF775FE05E03B46012231462046FFF77D
:101EA000A4FE29462046FFF7D2FF208940F0070014
:101EB0002081BDE8F08130B50C4600210189C9B20E
:101EC0004FF6FF7505EA0325154325432943018194
:101ED00030BD2DE9F04105460E46174698460024D0
:101EE00043463A4631462846FFF7E5FF2C894FF630
:101EF000F870044044F007044FF68F70044044F03B
:101F000070042C81BDE8F081F0B504460D461646FC
:101F10001F463B46324629462046FFF7CCFF208924
:101F200040F480402081F0BD82884FF68F731A40C4
:101F3000828082880A438280704702894FF6F87354
:101F40001A40028102890A430281704702894FF6D2
:101F50007F731A40028102890A4302817047F0B5FB
:101F60000C4615461E460021002200230189028BE3
:101F7000038C4FF6F877394021434FF6FC473A403F
:101F800040F201173A434FF6DD773B404FF6FF77BB
:101F900007EA06172F433B43018102830384F0BD08
:101FA00021B1828842F08002828004E082884FF66C
:101FB0007F731A4082807047A0F85010704700006D
:101FC00010B50446FE48844209D101214806FFF7B6
:101FD00002F900214FF00070FFF7FDF808E0012141
:101FE0008806FFF7F8F800214FF08060FFF7F3F85C
:101FF00010BD30B5024600200023146824F002040E
:102000001460146844F00104146000E05B1C546820
:1020100004F001041CB94FF6FF74A342F6D15468D2
:1020200004F001040CB900206CE08C79012C04D17F
:10203000146844F08004146003E0146824F0800401
:102040001460CC79012C04D1146844F0400414606D
:1020500003E0146824F0400414600C7A012C04D1CD
:10206000146844F02004146003E0146824F0200491
:1020700014604C7A012C04D1146844F010041460EC
:1020800003E0146824F0100414608C7A012C04D14D
:10209000146844F00804146003E0146824F0080491
:1020A0001460CC7A012C04D1146844F00404146048
:1020B00003E0146824F0040414608C78A407CD783D
:1020C00044EA05640D7944EA05444D7944EA05542F
:1020D0000D886D1E2C43D461146824F00104146033
:1020E000002300E05B1C546804F001041CB14FF6AF
:1020F000FF74A342F6D1546804F001040CB100202F
:1021000000E0012030BD10B50021837A012202FADF
:1021100003F1AC4A126842F00102AA4B1A60A94AC4
:102120001C3212688A43A74B1C331A60027BCAB95F
:10213000A44A0C3212688A43A24B0C331A604288BC
:10214000C38842EA03439F4A4032847A42F83430DB
:102150000288838842EA03439A4A4032847A02EB37
:10216000C4025360027B012A19D1964A0C321268CC
:102170000A43944B0C331A604288038842EA0343B3
:10218000904A4032847A42F83430C288838842EAE6
:1021900003438C4A4032847A02EBC4025360C27A11
:1021A0003AB9884A121D12688A43864B1B1D1A6071
:1021B00006E0844A121D12680A43824B1B1D1A60F6
:1021C000028932B97F4A143212688A437D4B143334
:1021D0001A600289012A06D17A4A143212680A4327
:1021E000784B14331A60427B012A06D1754A1C329F
:1021F00012680A43734B1C331A60724A126822F049
:102200000102704B1A6010BD00218171C171017211
:1022100041728172C1728170C1700321017102210A
:1022200041710121018070476649096841F001014F
:10223000644A11601146096843F60E729143614A7F
:1022400011601146096841EA0021116011460968D0
:1022500021F001011160704721B1026842F480321F
:10226000026003E0026822F4803202607047E1B14C
:10227000026842F0800202604FF4C272125842F4C7
:1022800080734FF4C27213504FF4CA72125842F462
:1022900080734FF4CA7213504FF4D272125842F442
:1022A00080734FF4D27213501BE0026822F0800258
:1022B00002604FF4C272125822F480734FF4C2725B
:1022C00013504FF4CA72125822F480734FF4CA723A
:1022D00013504FF4D272125822F480734FF4D2721A
:1022E0001350704710B502460020936803F08063D6
:1022F000B3F1806F00D110E0936803F00063B3F195
:10230000006F01D1012008E0936803F08053B3F11E
:10231000805F01D1022000E00420042879D002F57A
:10232000C07303EB00131B6803F0010402F5C073D4
:1023300003EB00131C600B7A7BB94B7A0C8843EAE1
:10234000445302F5C07404EB00142468234302F5DF
:10235000C07404EB0014236010E00B7A4C6843EA6D
:10236000C4034C7A234302F5C07404EB00142468C0
:10237000234302F5C07404EB001423608B7A03F04E
:102380000F038B7202F5C07303EB00135B6823F03D
:102390000F0402F5C07303EB00135C6002F5C07319
:1023A00003EB00135B688C7A234302F5C07404EBE3
:1023B000001463608B7B1C064B7B44EA034403E000
:1023C00000640040006600400B7B44EA0323CC7AA3
:1023D000234302F5C07404EB0014A3608B7C1C063D
:1023E0004B7C44EA03440B7C44EA0323CC7B234329
:1023F00002F5C07404EB0014E36002F5C07303EB54
:1024000000131B6843F0010402F5C07303EB0013D3
:102410001C6010BD10B50246002321B1012907D070
:1024200002290FD109E09068F94C00EA04030BE09F
:102430009068F84C00EA040306E09068F64C00EA65
:10244000040301E0002300BF00BFF44C181BA342AB
:1024500016D007DC83B16FF08060184470B1022899
:1024600018D111E0B0F5007F10D0ED4C204448B1F8
:10247000B0F5003F0ED10BE002230DE000230BE08E
:10248000002309E0002307E0012305E0012303E026
:10249000012301E0002300BF00BFD8B210BD21B16D
:1024A000012907D002290FD109E0826842F0800299
:1024B00082600AE0826842F40042826005E082683D
:1024C00042F40002826000E000BF00BF704710B518
:1024D00000F5D87303EB01131B6803F004031372B8
:1024E000137A53B900F5D87303EB01131B6840F25C
:1024F000FF7404EA5353136009E000F5D87303EB4B
:1025000001131B686FF0604404EAD303536000F5C5
:10251000D87303EB01131B6803F00203537200F539
:10252000D87303EB01135B6803F00F03937200F59C
:10253000D87303EB01135B681B0AD37400F5D873DF
:1025400003EB01139B68D37200F5D87303EB0113FF
:102550009B681C0A147300F5D87303EB01139B6886
:102560001C0C547300F5D87303EB01139B681B0E0E
:10257000937300F5D87303EB0113DB68D37300F595
:10258000D87303EB0113DB681C0A147400F5D873CD
:1025900003EB0113DB681C0C547400F5D87303EBD8
:1025A0000113DB681B0E937421B9C36843F0200349
:1025B000C36003E0036943F02003036110BD21B948
:1025C000C26842F02002C26003E0026942F02002C9
:1025D000026170470246002019B9D36803F0030076
:1025E00006E0012903D1136903F0030000E0002095
:1025F000704710B502460B4600204FF6FF71BBB97D
:10260000146824F0020444F00104146000E0491E40
:10261000546804F00304012C01D00029F7D1546858
:1026200004F00304012C01D0002032E0012030E04E
:10263000012B13D1146824F00304146000E0491E38
:10264000546804F003040CB10029F8D1546804F074
:1026500003040CB100201CE001201AE0022B17D16A
:10266000146824F0010444F00204146000E0491EE0
:10267000546804F00304022C01D00029F7D15468F7
:1026800004F00304022C01D0002002E0012000E04D
:10269000002010BD014600200A6822F0010242F02D
:1026A00002020A604A6802F00302022A00D10120F5
:1026B000704701464FF6FF7200200B6823F00203BB
:1026C0000B6000E0521E4B6803F00203022B01D1A5
:1026D000002AF7D14B6803F00203022B00D001203F
:1026E0007047014600208A6902F070007047014679
:1026F00000208A69100E7047014600208A69C2F3E3
:10270000074070471AB143690B43436102E04369D4
:102710008B434361704710B50246002001F47003FB
:1027200043B19369C1F3130423400BB101202DE0A1
:1027300000202BE001F0807343B15368C1F3130410
:1027400023400BB1012021E000201FE001F00063D5
:1027500043B19368C1F3130423400BB1012015E08A
:10276000002013E001F0007343B1D368C1F31304F8
:1027700023400BB1012009E0002007E01369C1F3F9
:10278000130423400BB1012000E0002010BD002203
:10279000244B994202D10023836111E0C1F313025B
:1027A00001F000730BB1C2600AE001F080630BB16D
:1027B000026105E001F000630BB1826000E042605D
:1027C00070470246002002EA01030BB1012000E03D
:1027D0000020704770B504460D4600266069284009
:1027E000002872D0B5F5807F69D01DDC082D42D05D
:1027F00006DC012D2DD0022D31D0042D7FD134E007
:10280000102D3ED0202D42D0402D78D145E0000043
:10281000030000040003000800000310000100088A
:102820000001FFF77000F030B5F5004F61D009DC12
:10283000B5F5007F4AD0B5F5806F4DD0B5F5006F86
:102840005DD150E0B5F5803F2DD0B5F5003F56D1B4
:102850002FE0A0685549FFF7B4FF064651E0E06855
:102860000321FFF7AEFF06464BE0E0680821FFF7C3
:10287000A8FF064645E0E0681021FFF7A2FF0646E4
:102880003FE020690321FFF79CFF064639E02069FD
:102890000821FFF796FF064633E020691021FFF775
:1028A00090FF06462DE060680821FFF78AFF064684
:1028B00027E060681021FFF784FF064621E0A06949
:1028C0000121FFF77EFF06461BE01BE0A069022105
:1028D000FFF777FF064614E0A0690421FFF771FFB8
:1028E00006460EE00BE0A0697021FFF76AFF06467E
:1028F00007E060680421FFF764FF064601E0002658
:1029000000BF00E00026304670BDB1F5007F3AD030
:102910000FDC202928D006DC01291CD004291DD079
:10292000082940D11DE0402921D0B1F5807F3AD15E
:1029300026E0B1F5004F31D006DCB1F5806F25D02F
:10294000B1F5006F2FD124E0B1F5803F12D0B1F581
:10295000003F28D111E0154A826025E00822C260BC
:1029600022E01022C2601FE0082202611CE0102257
:10297000026119E00822426016E01022426013E072
:102980000422426010E0042242600DE00422426012
:102990000AE0002282610422426005E00022826196
:1029A0000422426000E000BF00BF70470101010047
:1029B0000CB50020019000907648006840F480300B
:1029C0007449086000BF7348006800F4003000904C
:1029D0000198401C0190009818B90198B0F5A06FBB
:1029E000F1D16C48006800F4003010B10120009073
:1029F00001E0002000900098012846D16548403051
:102A0000006840F0805063494031086062480068C7
:102A100040F48040604908605E48083000685D49C5
:102A2000083108600846006840F400400860084625
:102A3000006840F4A05008605848091F0860081F4B
:102A4000006840F08070091F086000BF51480068AE
:102A500000F000700028F9D040F20560504908608D
:102A60004C480830006820F003004A4908310860EB
:102A70000846006840F00200086000BF4548083082
:102A8000006800F00C000828F8D10CBD10B54548CE
:102A9000006840F47000434908603E48006840F018
:102AA00001003C49086000203A4908310860394873
:102AB00000683D490840374908603C48091D0860E6
:102AC000081F006820F48020091F08600020314999
:102AD0000C310860FFF76CFF4FF00060314980391E
:102AE000086010BD70B500200022022300240221DE
:102AF000284D08352D6805F00C0020B1042806D0BB
:102B0000082834D107E02A4D2A4E356033E02A4D9B
:102B1000284E35602FE01F4D2D1D2D68C5F38054C4
:102B20001C4D2D1D2D6805F03F0154B1224DB5FB04
:102B3000F1F5184E361D3668C6F3881605FB06F209
:102B400009E01B4DB5FBF1F5124E361D3668C6F394
:102B5000881605FB06F20F4D2D1D2D68C5F30145A6
:102B60006D1C6B00B2FBF3F5124E356003E0104DA7
:102B7000104E356000BF00BF064D08352D68C5F307
:102B800003150E4E705D0B4D2D68C540094E356026
:102B900070BD00000038024000700040195440072A
:102BA000003C024088ED00E0FFFFF6FE10300024FC
:102BB0000024F4001800002040787D011C00002053
:102BC0000648804706480047FEE7FEE7FEE7FEE7C7
:102BD000FEE7FEE7FEE7FEE7FEE7FEE78D2A0008D8
:102BE00089010008064C074D06E0E06840F001034B
:102BF00094E8070098471034AC42F6D3FDF7C8FAC2
:102C0000282C0008482C000802E008C8121F08C140
:102C1000002AFAD170477047002001E001C1121F5D
:102C2000002AFBD170470000482C0008000000205B
:102C30002C000000082C0008742C00082C00002038
:102C4000CC040000182C0008000000000000000068
:102C50000000000102030401020304060708090042
:102C6000007A030A000000000000000001020304D3
:042C70000607080942
:040000050800018965
:00000001FF
